:020000040800F2
:10000000200C0020ED010008B52000086D1A000842
:10001000C51B0008831400083B45000800000000D1
:10002000000000000000000000000000FD240008A7
:10003000151500080000000041220008692600088C
:10004000070200080702000807020008070200086C
:1000500007020008070200081915000875150008B6
:1000600007020008D115000807020008070200086F
:10007000070200080702000807020008070200083C
:10008000070200080702000807020008070200082C
:1000900007020008070200080702000829160008E6
:1000A000070200080702000807020008070200080C
:1000B00007020008070200080702000807020008FC
:1000C00007020008070200080702000807020008EC
:1000D00007020008854000081D4100082D42000865
:1000E00007020008070200080702000807020008CC
:1000F00007020008070200080702000807020008BC
:1001000007020008070200080702000807020008AB
:10011000F93E00080702000807020008192C000831
:10012000070200080702000807020008070200088B
:1001300000F002F800F04AF80AA090E8000C8244AF
:100140008344AAF10107DA4501D100F03FF8AFF28C
:10015000090EBAE80F0013F0010F18BFFB1A43F0A5
:1001600001031847D45F0000F45F0000103A24BF79
:1001700078C878C1FAD8520724BF30C830C144BF0C
:1001800004680C607047000000230024002500264E
:10019000103A28BF78C1FBD8520728BF30C148BFEA
:1001A0000B607047662905F07A87642900F04C805F
:1001B000002070471FB500F025FC0400002000213E
:1001C00005F0B4F9E0601FBD10B510BD00F032FDC0
:1001D0001146FFF7EFFF04F05DFD00F050FD03B4A2
:1001E000FFF7F2FF03BC04F0DEF900000948804786
:1001F00009480047FEE7FEE7FEE7FEE7FEE7FEE709
:10020000FEE7FEE7FEE7FEE704480549054A064B20
:10021000704700006D26000831010008200600200C
:10022000200C00202008002020080020704700003B
:100230000FB4044910B503AA029800F09FFB10BC4C
:100240005DF814FB0C0100202DE9F0410646002466
:1002500010687529314616A510D0AFF3008000282C
:1002600002DA404213A507E031688A0701D512A5DA
:1002700002E0490704D511A5012401E0AFF3008095
:1002800000210A2206F1240709E0B0FBF2FCB0FBD2
:10029000F2F302FB1C00303078541846491C002849
:1002A000F3D123462A463046BDE8F04100F0FFB8BE
:1002B000000000002D0000002B00000020000000C6
:1002C0002DE9F0474FF0000A89460446C0F820A007
:1002D0002046E1688847002876D0252806D0D4E952
:1002E00001219047206A401C2062F1E7E168204626
:1002F00000258847C4F81CA006460027C4F818A0AB
:100300002A2E09D0304604F047F938B304EB8708A9
:10031000303EC8F8186019E059F8041B204604EB79
:1003200087029161E1688847012F064618D1E0698C
:10033000002820DA25F020051DE0D8F8180000EB91
:10034000800006EB40003038C8F818002046E1680D
:100350008847064604F020F90028EED1012F0AD084
:100360002E2E08D12046E16888477F1C0646022FC2
:1003700045F02005C4DBA069002803DA404245F0BF
:100380000105A061E80701D025F01005B6B1A6F17E
:100390004100192802D8203645F400654A46314606
:1003A000204625604D46FFF7FDFE58B1012806D0D6
:1003B000ED1D25F0070000F1080989E704E005F1CB
:1003C000040985E730468AE7206ABDE8F087032AFA
:1003D00040F2308010F0030C00F0158011F8013B62
:1003E000BCF1020F624498BF11F801CB00F8013B49
:1003F00038BF11F8013BA2F1040298BF00F801CB0D
:1004000038BF00F8013B11F0030300F0C982083A3D
:10041000C0F0088051F8043B083A51F804CBA0E83A
:100420000810F5E7121D5CBF51F8043B40F8043B8F
:10043000AFF30080D20724BF11F8013B11F801CBC4
:1004400048BF11F8012B24BF00F8013B00F801CB95
:1004500048BF00F8012B70474FF0000200B513466B
:1004600094469646203922BFA0E80C50A0E80C50D4
:10047000B1F12001BFF4F7AF090728BFA0E80C5085
:1004800048BF0CC05DF804EB890028BF40F8042B7E
:1004900008BF704748BF20F8022B11F0804F18BFEB
:1004A00000F8012B704770477047704770472DE97F
:1004B000F0470D4699469246044600F1240801682B
:1004C000880604D5E06921F01001216000E00120D8
:1004D000A84201DD471B00E00027A1697A1902EB61
:1004E0000900081AA0612078C00602D42046AFF3A4
:1004F0000080002608E0D4E901211AF806009047A0
:10050000206A401C761C20624E45F4DB2078C00631
:100510000AD52046AFF3008006E0D4E9012130205F
:100520009047206A401C2062381EA7F10107F4DCC6
:1005300007E0D4E9012118F805009047206A401C23
:100540002062281EA5F10105F3DC2046AFF30080F0
:100550002078000602D50220BDE8F0870120FBE7E5
:1005600070472DE9FF4F0C461E464FF0FF378BB00A
:10057000D2E90001DDF860800A908A46C1F30A558D
:1005800005B93D46002108464FF00000BAF1000FC2
:1005900000F4400005DA00EB80004FF4400101EA6E
:1005A00050004FEA9059B9F1010F00DDB9460A98A1
:1005B00050EA4A000ED044F61050A5F2FF354543EC
:1005C0002F14B8F1000F1ED07542291E1EDDC9F18F
:1005D00000021CE0B8F1010F4FF0000001D0302103
:1005E00003E0F24305E02154401CB042FBDB3046FF
:1005F0000022002121540B99C1F80880C1E9002094
:100600000FB0BDE8F08FBD1B6D1CDEE74A4600DA77
:10061000694206A800F098FA06AB93E8070003AB1E
:1006200083E8070050460A9900F070FB8DE8070048
:10063000A0F500501F3800900398002D09DD42F20C
:100640001F014A46084403A90390684600F0CFFD05
:1006500008E0A0F500504A461F3803A903906846F9
:1006600000F0D9FD8DE807000004000C03D04FF026
:10067000FF30410800E01046B8F1000F03D000221F
:10068000009215461EE0751E05D400F0BFF9303209
:1006900062556D1EF9D5B3460122084302D00022EF
:1006A0007F1C04E02078302801D100227F1E002A20
:1006B000099786D01DE0112D07DA00F0A7F9303236
:1006C00062556D1C50EA0102F5D1084302D0009832
:1006D000C8B10EE00021681E05E0235C625C635433
:1006E0002254401E491C8142F7DBAB46A81B401E2A
:1006F0000990002004F80B000B98099AC0F80880B4
:10070000C0E9002B7CE711264FF0000859E72DE9DE
:10071000F04F88460446D21D22F0070191B0D1E97E
:100720000001CDE90A0103F023FF02460B98C00F38
:1007300001D02D2007E02068810701D52B2002E0A1
:10074000202101EAC000032A099001D0072A05DB15
:1007500003464146204600F0B7F90BE120788006B9
:1007600001D5E06900E00620B8F1650F814606D0AA
:10077000B8F1660F18D0B8F1670F70D131E00020E2
:10078000B9F1110F009001DB112301E009F1010320
:100790000AAA01A90CA8FFF7E4FEDDE90C70002607
:1007A00009F10105834647E001204B4600904FF0D8
:1007B00000470AAA01A90CA8FFF7D3FEDDE90DB096
:1007C0000C995D46002610B909F101000D18B9EB2E
:1007D000050003D4C0F1FF3609F10105A5EB0900BE
:1007E0002BE0B9F1010F01DA4FF001090020B9F156
:1007F000110F0090484601DD112300E003460AAACC
:1008000001A90CA8FFF7ADFEDDE90C704D460026EE
:100810008346207800070AD4AB4500DA5D4601A87C
:10082000012D04DD411911F8011C302907D04F4575
:1008300002DA17F1040F04DA012082460FE06D1E80
:10084000EEE7002F02DCED1B3E4403E0781CA842DB
:1008500000DD7D1CB81B00F1010A4FF00047207835
:10086000000703D4AA4501DB4FF0FF3A0021B7F19E
:10087000004F0DF143088DF8431024D002202B23A4
:10088000002F01DA7F422D230A21021EA0F1010070
:1008900000DC5FB197FBF1FC97FBF1F201FB1C7CE4
:1008A00017460CF1300C08F801CDEEE7A8F1010075
:1008B00003702188090501D5452100E06521A0F1DB
:1008C000010800F8011C09980FA9A1EB0807FF1DFA
:1008D00000B10120411901EBEA70A1693844081AFE
:1008E000401EA0612078C00602D42046AFF30080ED
:1008F000099828B1D4E901219047206A401C206260
:100900002078C00622D52046AFF300801EE0002EDE
:1009100004DBB34502DD01A8805D00E03020D4E9AE
:1009200001219047206A401C2062761CAAF1010038
:100930005FEA000A0AD100F065F8C0680168405C0F
:10094000D4E901219047206A401C2062281EA5F1AD
:100950000105DCDC07E0D4E9012118F8010B904720
:10096000206A401C2062381EA7F10107F3DC2046F4
:10097000AFF30080032011B043E60000074B70B5D1
:100980000D467B4400F08DF80446284600F04AF9F5
:1009900010B14FF0FF3070BD204670BD0B3F00001E
:1009A00010B5203AC0F00B80B1E81850203AA0E80A
:1009B0001850B1E81850A0E81850BFF4F5AF5FEA3E
:1009C000027C24BFB1E81850A0E8185044BF18C9F1
:1009D00018C0BDE810405FEA827C24BF51F8043B98
:1009E00040F8043B08BF7047D20728BF31F8023BEC
:1009F00048BF11F8012B28BF20F8023B48BF00F880
:100A0000012B704700487047E005002030B5B0F179
:100A10000A024FEA900E71F100034EEA817EB0EBBC
:100A20000E0061EB91014FEA101E4EEA017E10EBC1
:100A30000E0041EB11114FEA102E4EEA016E10EB41
:100A40000E0041EB11214FEA104E4EEA014E10EB21
:100A50000E0041EB1141401841F100014FEAD00076
:100A600040EA41704FEAD10110EB80054FEA810462
:100A700044EA907444EB01046D1944EB0404521BE6
:100A8000A3414FF0000348BF0A3200D530BD401CDF
:100A900041F1000130BD000001694A1C0261087883
:100AA000704700B58FB0CDE90131002105910549AE
:100AB0007944CDE9031011466846FFF701FC0FB0F9
:100AC00000BD0000E5FFFFFF2DE9F0411F46044691
:100AD00003260168072A01F4006004DB08B116A5AB
:100AE00005E016A503E008B115A500E015A521F065
:100AF00010002060A069C01EA0610FB1401EA0615F
:100B00002046AFF300804FB1D4E901213846904729
:100B1000206A401C2062C01C206206E0206AFAE7BE
:100B2000D4E9012115F8010B9047761EF8D2204632
:100B3000AFF30080BDE8F0814E414E006E616E0063
:100B4000494E4600696E66002DE9F047814616461B
:100B50008AB0334878440DC88DE80D003048784499
:100B6000801C03AC0DC884E80D0041F69B3008449E
:100B7000372190FBF1F290FBF1F5A5F1800501FB27
:100B800012041B3C02D56442012000E00020DFF883
:100B900090A080460027FA44AAF1BE0A0DE0E007C3
:100BA00009D03246684607EB47010AEB810100F0A5
:100BB00032FB8DE8070064107F1C002CEFD1184F2A
:100BC0007F44AC3F18E0E80714D007EB04100DF1A8
:100BD000180A90E80E008AE80E00C068F04201D1C1
:100BE00098190890324606A903A800F014FB03AB3D
:100BF00083E807006D10641C002DE4D1324669467D
:100C0000B8F1000F03A802D000F0F1FA01E000F003
:100C100002FBC9E90001C9F808200AB0BDE8F08765
:100C2000C8550000007B00F0800070470048704706
:100C3000C00500207546FFF7F9FFAE46050069467E
:100C4000534620F00700854618B020B5FFF7DCFAC0
:100C5000BDE820404FF000064FF000074FF00008BD
:100C60004FF0000B21F00701AC46ACE8C009ACE83E
:100C7000C009ACE8C009ACE8C0098D46704704461D
:100C8000AFF300802046FFF7AAFA00004FF0013CC6
:100C900050F8042B51F8043B9A4221D1A2EB0C03EB
:100CA000934313EACC1317D150F8042B51F8043BAB
:100CB0009A4215D1A2EB0C03934313EACC130BD148
:100CC00050F8042B51F8043B9A4209D1A2EB0C03D3
:100CD000934313EACC13DBD04FF00000704700BF02
:100CE000D01A01BAB1FA81F101F0180122FA01F02B
:100CF000CB40C1F12001DBB2C0B2C01A2CFA01F323
:100D0000D11A914311EAC311E6D170475FEA400C52
:100D100008BF91F0000F4FEA8C234FEAC12243EA4B
:100D200051514FEA1C5018BF00F5F0404FEA300017
:100D300018BF41F000415FEA6C5C00F02980BCF113
:100D4000FF3F08BF40F080407047130C06BF1204FD
:100D50004FF0100C4FF0000C130E04BF12020CF1F8
:100D6000080C130F04BF12010CF1040C930F04BF05
:100D700092000CF1020CD30F04BF52000CF1010CD5
:100D800011464FF00002A0F11F00A0EB0C007047CD
:100D900011F0004F08BF704731F000413FF4D5AF6C
:100DA0000B0C06BF09044FF0100C4FF0000C0B0E9B
:100DB00004BF09020CF1080C0B0F04BF09010CF170
:100DC000040C8B0F04BF89000CF1020CCB0F04BF85
:100DD00049000CF1010CCCF12003A0EB0C0022FA2D
:100DE00003F302FA0CF241EA030100F1010070473B
:100DF00020F07F4C80EA030023F07F47ACEB070331
:100E000003F57C5300F0004003F1FF032DE9804916
:100E10004FEA154B09B44FEA144325EA0B4E24EA76
:100E200003480FF2042606EB132749083E785FEAD1
:100E3000320203FB0667C7F5000707FB06F64FEA19
:100E400054374FEAD64606F1020607FB066CCCF192
:100E5000005C4FEA1C472CEA074C07FB06F40CFB2E
:100E600006F504EB15464FEA961634BF00204FF006
:100E700000404FEAD13706FB07FC4FEA1C4C0CFB45
:100E80000BF7D21B03FB0CF761EB07010CFB0EF712
:100E9000B0EB074072EB17420CFB08F734BFA2EB34
:100EA0000742B2EB074261EB17414FEA0C444FEAAD
:100EB000910706FB07FC4FEA1C4C0CFB0BF7B0EB51
:100EC000C74072EB573203FB0CF734BFA2EBC742AB
:100ED000B2EBC74261EB57310CFB0EF7B0EBC7002A
:100EE00072EB57720CFB08F734BFA2EBC702B2EBF0
:100EF000C70261EB5771039F4FEA816141EA92118A
:100F000004EBCC044FEAD1374FEA826206FB07FCC0
:100F100042EA90124FEA80604FEA1C4C0CFB0BF740
:100F2000D21B03FB0CF761EB07010CFB0EF7B0EBD8
:100F3000074072EB17420CFB08F734BFA2EB0742E5
:100F4000B2EB074261EB17414FEA8C554FEA91072C
:100F500004EB9C2406FB07FC4FEA1C4C0CFB0BF734
:100F6000B0EBC74072EB573203FB0CF734BFA2EB78
:100F7000C742B2EBC74261EB57310CFB0EF7B0EB47
:100F8000C70072EB57720CFB08F734BFA2EBC70225
:100F9000B2EBC70261EB577115EB4C254FEA81614B
:100FA00041EA92114FEA82624FEAD13742EA901247
:100FB00006FB07FC44F100044FEA80604FEA1C4C3A
:100FC0000CFB0BF7D21B03FB0CF761EB07010CFBCF
:100FD0000EF7B0EB074072EB17420CFB08F734BF7B
:100FE000A2EB0742B2EB074261EB174115EB1C1570
:100FF0004FEA813141EA92414FEA823242EA90421D
:101000004FEA80304FEA0C7644F1000448EA03438B
:101010004EEA0B484FF0000EB2EB080C71EB0307E1
:1010200024BF624639464EEB0E0E4FF0000B0018FF
:10103000524149414BEB0B0BB2EB080C71EB030730
:101040007BF1000B24BF624639464EEB0E0E4FF08B
:10105000000B0018524149414BEB0B0BB2EB080C53
:1010600071EB03077BF1000B24BF624639464EEB60
:101070000E0E51EA020718BF46F0010616EB0E7677
:1010800055F1000254F1000103D5BDE88901BDE826
:101090000088BDE88901BDE80048B619524141EB1E
:1010A0000101A3F10103704780807F7E7D7C7B7A04
:1010B0007978777676757473727171706F6E6E6D04
:1010C0006C6C6B6A6A6968686766666564646363AA
:1010D00062616160605F5F5E5E5D5D5C5C5B5B5A30
:1010E0005A5959585857575656555555545453539D
:1010F00052525251515050504F4F4F4E4E4D4D4DF8
:101100004C4C4C4B4B4B4A4A4A4949494848484742
:101110004747474646464545454444444443434380
:101120004342424242414141002B26D4770021D024
:101130001CB54FEA370703B44FF010004FF0100111
:101140004FF000000FBCBDE810400BF1010BBBF1EC
:10115000010F08BF5FEA170722BF12F1010211F168
:1011600001014FF0004143F1000300F0004043EA69
:1011700000007047F9D35708DAE746EA064613F14C
:10118000400F4FEA16461FDD13F1200FDFBF164355
:101190000A46002120335B42C8D0C3F1200746EA4B
:1011A000064602FA07F74FEA164646EA0706C3F173
:1011B000200722FA03F201FA07F721FA03F14FF0B0
:1011C000000342EA0702B1E746EA020646EA06469B
:1011D0004FEA164646EA0106BCBF46EA0646360C0A
:1011E0004FF000034FF000024FF000019EE72DE9A1
:1011F000C048934630B491E8380007C831EA400C43
:1012000048BF34EA430C03D5FFF7F2FDFFF78CFF2C
:10121000F0BCBDE800882DE9C048934630B491E8A1
:10122000380007C810F0804F08BF13F0804F03D17B
:1012300000F005F8FFF778FFF0BCBDE8008820F06B
:101240007F4780EA030023F07F4C07EB0C03A3F5F4
:101250007C5300F00040A3F1FE0392F0000F00F079
:10126000B38095F0000F00F077802DE901494FEA37
:1012700011404FEA144621EA004800FB06FC24EA2C
:10128000064708FB06F607FB08F800FB07F718EB14
:1012900006484CEB164C4FEA124B18EB07484FEA46
:1012A00015464CEB174022EA0B4E0BFB06FC25EAD9
:1012B00006470EFB06F607FB0EFE0BFB07F71EEBC1
:1012C000064E4CEB164C4FF000061EEB074E4CEB57
:1012D000174B18EB0B0840F1000018EB0E0B58EB06
:1012E000000840F100008F1A4FF000013CBFC943D5
:1012F000661B14BFB5EB040C00213CBFC943F61BB1
:101300004FEA17444EEA8E0E27EA04454FEA1C477F
:1013100004FB07622CEA074C05FB07F70CFB05F6FC
:1013200004FB0CFC16EB074642EB174216EB0C468F
:1013300042EB1C421BEB060658EB0202414146EA17
:101340009E0601D5BDE80189B619524141EB010164
:10135000A3F10103BDE801894FEA14454FEA1147A3
:1013600024EA054621EA074C05FB07F406FB07F7CC
:101370000CFB06F105FB0CFC11EB074144EB174499
:101380004FEA124711EB0C4144EB1C4422EA074C94
:1013900005FB07F206FB07F70CFB06F605FB0CFC4A
:1013A00016EB074642EB174216EB0C4642EB1C4588
:1013B0006A1854F1000148BF7047B619524141EB19
:1013C0000101A3F10103704795F0000F37D04FEAF8
:1013D00011424FEA144721EA024624EA074C02FB75
:1013E00007F106FB07F70CFB06F402FB0CFC14EB01
:1013F000074441EB17414FEA154714EB0C4441EB0E
:101400001C4125EA074C02FB07F506FB07F70CFB1E
:1014100006F602FB0CFC16EB074645EB174516EBF0
:101420000C4645EB1C42121951F1000148BF7047B0
:10143000B619524141EB0101A3F1010370474FEA94
:1014400014454FEA114724EA054621EA074C05FBFB
:1014500007F106FB07F70CFB06F24FF0000605FB51
:101460000CFC12EB074241EB174112EB0C4251EB23
:101470001C4148BF7047921841EB0101A3F10103E1
:10148000704700BFFEE700001D490A780978491C33
:101490001B4B19701B4988540978552903D000212A
:1014A0001A4611707047164909780B2900DAF9E7D6
:1014B00014494978512904D052290AD0532918D106
:1014C0000FE011490F4A921C13680B6052684A6082
:1014D0000FE00E490B4A921C13680B6052684A6079
:1014E00007E00B49074A921C13680B6052684A6078
:1014F00000BF00BF0021024A117000BFD2E7000008
:10150000E40000204001002010000020180000200E
:10151000200000207047000010B51BE01348006851
:10152000032803D0114800680A2807D1C8234FF4C4
:101530002F724FF41671084601F056F80B480068F8
:10154000042807D14FF416731A46C8214FF42F70A0
:1015500001F04AF80648006820B10548001D0068FF
:101560000028DBD0012000F00FF910BD280000207A
:101570000001224210B51BE013480068032803D085
:10158000114800680A2807D14FF42F73C8224FF47E
:101590001671084601F028F80B480068042807D1A6
:1015A0004FF416731A464FF42F71C82001F01CF83F
:1015B0000648006820B10548001F00680028DBD0FD
:1015C000022000F0E1F810BD2800002004012242B2
:1015D00010B518E012480068012803D010480068D0
:1015E000052806D14FF49673C8229100184600F0E2
:1015F000FBFF0B4800680A2805D1C8239A0019464A
:10160000104600F0F1FF0748006820B10548083097
:1016100000680028DED0082000F0B6F810BD0000F9
:10162000280000200C01224210B51AE0134800687F
:10163000012803D011480068052807D14FF496739C
:101640004FF44872C821184600F0CEFF0B480068DE
:101650000A2806D14FF44873C8221946104600F0F4
:10166000C3FF0748006820B1054808380068002813
:10167000DCD0202000F088F810BD000028000020F9
:10168000140122420EB50121084600F0ADFE0521ED
:10169000022000F0C9F82020019000208DF80800F9
:1016A00008208DF8090001208DF80A0001A800F03B
:1016B00071F80321022000F0B7F808200190002003
:1016C0008DF8080008208DF8090001208DF80A0027
:1016D00001A800F05FF80021022000F0A5F8012029
:1016E000019000208DF8080008208DF809000120E5
:1016F0008DF80A0001A800F04DF80121022000F049
:1017000093F80220019000208DF8080008208DF841
:10171000090001208DF80A0001A800F03BF817200D
:101720008DF8000001208DF801008DF802008DF881
:101730000300684600F0C0FC09208DF8000001207D
:101740008DF801008DF802008DF80300684600F066
:10175000B3FC06208DF8000001208DF801008DF803
:1017600002008DF80300684600F0A6FC07208DF803
:10177000000001208DF801008DF802008DF80300B3
:10178000684600F099FC0EBD0149086070470000F2
:1017900014040140002123498279002A3AD00A46E4
:1017A000126803689A430B461A600A1D12680368A0
:1017B0009A430B1D1A60027911440A6803681A43A0
:1017C0000A60184A0832126803689A43154B0833B6
:1017D0001A601A1D126803689A43124B0C331A6080
:1017E0004279102A0ED11A1F126803681A430D4B52
:1017F00008331A601A1D126803681A43094B0C3328
:101800001A600DE00749427911440A6803681A43D7
:101810000A6005E0027911440A6803689A430A6085
:10182000704700000004014030B500228B071C0FF8
:101830000F2303FA04F20B4B8C1053F8243093431C
:10184000084C8D1044F8253023468C1053F8243072
:101850008C07240F00FA04F42343024C8D1044F843
:10186000253030BD080001402DE9F0410246002539
:101870000026002000230024002791F803C00CF06C
:101880000F0591F803C00CF0100CBCF1000F03D051
:1018900091F802C04CEA050591F800C0BCF1000FB8
:1018A00031D0146800202BE04FF0010C0CFA00F34B
:1018B000B1F800C00CEA03069E4220D183004FF02D
:1018C0000F0C0CFA03F7BC4305FA03FC4CEA0404C2
:1018D00091F803C0BCF1280F06D14FF0010C0CFAAF
:1018E00000FCC2F814C00AE091F803C0BCF1480F34
:1018F00005D14FF0010C0CFA00FCC2F810C0401CDE
:101900000828D1D31460B1F800C0BCF1FF0F34DD5A
:10191000546800202EE000F1080C4FF0010808FA8E
:101920000CF3B1F800C00CEA03069E4221D18300FB
:101930004FF00F0C0CFA03F7BC4305FA03FC4CEA1A
:10194000040491F803C0BCF1280F05D100F1080C84
:1019500008FA0CF8C2F8148091F803C0BCF1480FE3
:1019600007D100F1080C4FF0010808FA0CF8C2F892
:101970001080401C0828CED35460BDE8F0810000E0
:10198000F0B50A46002300240021002500F000469F
:10199000B6F1004F02D11D4EF16901E01B4E716896
:1019A000C0F3034583B200F44016B6F5401F08D1DA
:1019B00021F07061154E766826F07066134F7E60D8
:1019C00012E000F48016B6F5801F06D1032606FA51
:1019D00005F4A14341F0706106E0460D360103FABB
:1019E00006F6B14341F0706122B1460D360103FAAB
:1019F00006F6314300F00046B6F1004F02D1034E27
:101A0000F16101E0014E7160F0BD00000000014095
:101A10004FF6FF710180022181700421C17070476F
:101A20002DE9F04104460D4616461F460C4802F0CB
:101A30003DFFC821484320600A4802F037FFC82113
:101A400048433060C80602F031FFC821484328608F
:101A5000054802F02BFFC82148433860BDE8F081FB
:101A600000080040000C00400034014000BFFEE7C9
:101A70000A48006820F0020008490860084600682B
:101A800020F0010008600846006820F0200008608F
:101A90000846006820F00800086070470004014014
:101AA00010B586B004460121284800F07DFC4FF4B3
:101AB0008060ADF8140018208DF8170003208DF811
:101AC000160005A92248FFF7CFFE4FF40060ADF8DD
:101AD000140004208DF8170005A91D48FFF7C4FE67
:101AE00001940020ADF80800ADF80A00ADF80C0034
:101AF000ADF810000C20ADF80E0001A9154802F059
:101B0000A7FC002240F22771124802F07CFC01225F
:101B100040F225510F4802F076FC40210D4802F0BA
:101B2000C9FB01210B4802F0DDFB27208DF80000E6
:101B300002208DF801008DF8020001208DF80300CD
:101B4000684600F0B9FA06B010BD000008000400B5
:101B5000000C01400048004008B501211C2000F0A5
:101B600043FC4FF47040ADF8000003208DF80200F4
:101B700010208DF8030069460F48FFF775FE4FF4FB
:101B80009870ADF8000003208DF8020010208DF849
:101B9000030069460948FFF767FE1020ADF8000012
:101BA00003208DF8020010208DF8030069460448D8
:101BB000FFF75AFE08BD0000000C0140000801407C
:101BC0000010014000BFFEE710B540F6282015497F
:101BD00008601549086015490860154908604FF408
:101BE00016731A461946184600F0FEFC01201149EA
:101BF000086000201049C1F8940101200D491031FE
:101C0000086000200D4908600D49086001200C495A
:101C100008310860091F086000200A49C1F8BC01AA
:101C200010BD000084000020880000208C000020EF
:101C300090000020900121420000214290012242A8
:101C4000B08121420080214210B500231A46194676
:101C5000184600F0C9FC00200E4908600E49C1F882
:101C600094010C49103108600C4908600C49086067
:101C70000B4908310860091F086009490C310860E8
:101C80000849086008490860084908600849086070
:101C900010BD00009001214200002142900122422B
:101CA000B081214284000020880000208C000020A8
:101CB0009000002010B54FF42F60154908601549B9
:101CC000086015490860154908604FF416731A46F4
:101CD0001946184600F088FC0020114908600120D0
:101CE0001049C1F8940100200D491031086001200D
:101CF0000D4908600D49086000200C490831086052
:101D0000091F086001200A49C1F8BC0110BD00008C
:101D100084000020880000208C000020900000201B
:101D2000900121420000214290012242B0812142D3
:101D30000080214210B54FF448731A4619461846E0
:101D400000F052FC40F62820114908601149086053
:101D500011490860114908600020114908600120FC
:101D60001049C1F894010E491031086000200E4955
:101D700008600E49086001200C4908310860002005
:101D8000091F086001200A49C1F8BC0110BD00000C
:101D900084000020880000208C000020900000209B
:101DA000900121420000214290012242B081214253
:101DB0000080214210B54FF448731A461946184660
:101DC00000F012FC40F62820114908601149086013
:101DD000114908601149086001201149086000207C
:101DE0001049C1F894010E491031086001200E49D4
:101DF00008600E49086000200C4908310860012085
:101E0000091F086000200A49C1F8BC0110BD00008C
:101E100084000020880000208C000020900000201A
:101E2000900121420000214290012242B0812142D2
:101E30000080214210B5B4231A461946184600F016
:101E4000D3FB00200D49086001200D49C1F8940121
:101E500000200A491031086001200A49086000206A
:101E6000094908600120084908310860091F086015
:101E700000200649C1F8BC0110BD000090012142BC
:101E80000000214290012242B08121420080214283
:101E900010B5B4231A461946184600F0A5FB0120D8
:101EA0000D49086000200D49C1F8940101200A493C
:101EB0001031086000200A490860012009490860C3
:101EC0000020084908310860091F08600120064900
:101ED000C1F8BC0110BD0000900121420000214268
:101EE00090012242B08121420080214270B5054616
:101EF0000C46012D06D0022D37D0032D62D0042DC3
:101F000032D196E001206249086000206149C1F8A1
:101F1000940101205E491031086000205E4908608C
:101F20005E49086001205D4908310860091F0860AA
:101F300000205A490C31086040F6282058490860B2
:101F4000584908604FF44871012001F079FFA1B2AF
:101F5000022001F075FF4FF44871032001F070FF7B
:101F6000A1B2042001F06CFF8FE001204849086015
:101F700000204849C1F8940101204549103108600A
:101F8000002045490860454908600120434908315F
:101F90000860091F086000204349C1F8BC01A1B2D4
:101FA000012001F04DFF4FF44871022001F048FF7D
:101FB000A1B2032001F044FF4FF44871042001F066
:101FC0003FFF62E000203249086001203149C1F83A
:101FD000940100202E491031086001202E4908602C
:101FE0002E49086000202D4908310860091F08604B
:101FF00001202A490C3108604FF42F602B490860FA
:102000002B4908602648046026480460A1B20120DC
:1020100001F016FF4FF44871022001F011FFA1B248
:10202000032001F00DFF4FF44871042001F008FF78
:102030002BE000201649086001201649C1F89401E0
:10204000002013491031086001201349086013492A
:1020500008600020114908310860091F086001204C
:102060001149C1F8BC014FF4487101F0E9FEA1B279
:10207000022001F0E5FE4FF44871032001F0E0FE7C
:10208000A1B2042001F0DCFE00BF00BF70BD000063
:10209000900121420000214290012242B081214260
:1020A0008400002088000020008021428C00002055
:1020B000900000207047000070B5002100230F221F
:1020C000C47804B3154C246804F4E064C4F5E064F7
:1020D000210AC1F10403CA40447804FA03F1847868
:1020E0001440214309010E4C0678A155047804F0F0
:1020F0001F050124AC4005786D11AD0005F1E02508
:10210000C5F8004109E0047804F01F050124AC4043
:10211000044D0678761145F8264070BD0CED00E0C0
:1021200000E400E080E100E002490143024A11605E
:10213000704700000000FA050CED00E000B5CC206F
:1021400027490861002048611E2088614FF44840FB
:10215000C8600020C88301200877002008844884D4
:10216000084603F0C1F8CC201E49086100204861F0
:102170001E2088614FF44840C8600020C8830120B9
:102180000877002008844884084603F0ADF8CC2086
:1021900015490861002048611E2088614FF44840BD
:1021A000C8600020C8830120087700200884488484
:1021B000084603F099F8CC200C49086100204861DA
:1021C0001E2088614FF44840C8600020C883012069
:1021D0000877002008844884084603F085F800BD8D
:1021E000A0020020C4020020E80200200C0300200E
:1021F000F0B504460D4600210023291BD2E9000753
:10220000CF1B166906FB0700566906FB0100022773
:10221000566807FB161697683E44976907FB060346
:102220001360506890605160D068984200DAD368BB
:10223000D0684042984201DDD06843429812F0BD18
:1022400070470000F0B507460C4615461E460F4B7A
:102250000F4A1049104800F021F80F49B1F91E103B
:102260003868084438600B49B1F91E1020680844EA
:1022700020600749B1F91E10286808442860034906
:10228000B1F91E10306808443060F0BD0C03002026
:10229000E8020020C4020020A0020020F0B506469B
:1022A0000C4617461D46307F01280AD1B6F9221088
:1022B000B6F920003246FFF79BFF404200B2F083A0
:1022C00006E00020F083304603F00EF8022030775D
:1022D000207F01280AD1B4F92210B4F92000224647
:1022E000FFF786FF404200B2E08306E00020E08373
:1022F000204602F0F9FF02202077387F01280AD11A
:10230000B7F92210B7F920003A46FFF771FF4042B3
:1023100000B2F88306E00020F883384602F0E4FFBC
:1023200002203877287F01280AD1B5F92210B5F9A3
:1023300020002A46FFF75CFF404200B2E88306E037
:102340000020E883284602F0CFFF02202877F0BD66
:1023500008B50121042000F047F80121082000F011
:1023600043F80121022000F01FF803208DF802003D
:1023700018208DF80300C020ADF800006946084819
:10238000FFF772FA03208DF8020018208DF8030081
:102390000320ADF8000069460248FFF765FA08BD62
:1023A00000080140000C014029B1064AD2690243ED
:1023B000044BDA6104E0034AD2698243014BDA61DB
:1023C000704700000010024029B1064A126902431A
:1023D000044B1A6104E0034A12698243014B1A61FB
:1023E000704700000010024029B1064A926902437A
:1023F000044B9A6104E0034A92698243014B9A615B
:10240000704700000010024029B1064AD26802431A
:10241000044BDA6004E0034AD2688243014BDA607D
:10242000704700000010024030B500210022002457
:1024300000232D4D6D6805F00C0121B1042905D054
:10244000082923D105E0294D056022E0274D0560CC
:102450001FE0254D6D6805F47012234D6D6805F47D
:102460008034022505EB92421CB9214D554305608D
:102470000BE01D4D6D6805F400351DB11C4D554335
:10248000056002E0194D5543056002E0174D0560F7
:1024900000BF00BF144D6D6805F0F0010909154D2E
:1024A0006B5C0568DD4045600F4D6D6805F4E061CB
:1024B000090A104D6B5C4568DD4085600A4D6D680A
:1024C00005F46051C90A0B4D6B5C4568DD40C56081
:1024D000054D6D6805F44041890B074D6B5CC5687F
:1024E000B5FBF3F5056130BD0010024000127A0023
:1024F00000093D001201002022010020704710B5A4
:1025000000F002F810BD00000CB500200190009012
:102510003348006840F480303149086000BF3048DB
:10252000006800F4003000900198401C0190009871
:1025300018B90198B0F5A06FF1D12948006800F4EE
:10254000003010B10120009001E0002000900098C0
:10255000012843D12348006840F010002149086059
:102560000846006820F0030008600846006840F054
:10257000020008601A4840681949486008464068E7
:1025800048600846406840F48060486008464068FB
:1025900020F47C1048600846406840F4E810486029
:1025A0000846006840F08070086000BF0C48006872
:1025B00000F000700028F9D00948406820F00300BE
:1025C000074948600846406840F00200486000BF84
:1025D0000348406800F00C000828F9D10CBD000049
:1025E00000100240002002402DE9F04107460C4651
:1025F00015461E46384602F037FC1FFA80F8414661
:10260000012001F01DFC204602F02EFC1FFA80F88C
:102610004146022001F014FC284602F025FC1FFA76
:1026200080F84146032001F00BFC304602F01CFC10
:102630001FFA80F84146042001F002FCBDE8F08159
:10264000042808D14FF0E021096941F004014FF05E
:10265000E022116107E04FF0E021096921F0040157
:102660004FF0E022116170477047000010B5134829
:10267000006840F0010011490860084640681049B0
:1026800008400E494860084600680E4908400B495A
:1026900008600846006820F480200860084640680A
:1026A00020F4FE0048604FF41F008860FFF727FF0A
:1026B0004FF000600449086010BD000000100240A7
:1026C0000000FFF8FFFFF6FE08ED00E0F0B50C4655
:1026D000154600220021068C4FF6FE773E40068408
:1026E000028B018C4FF60C7632407E1C06EA0316F4
:1026F0002E433243104EB0420ED0104EB0420BD09B
:10270000B0F1804F08D00E4EB04205D00D4EB04211
:1027100002D00D4EB04206D14FF6FD76314044F066
:102720000106314305E04FF6F576314044F00106ED
:10273000314302830184F0BD002C0140003401408C
:102740000004004000080040000C0040F0B50C46BA
:102750001546002200210026078C4FF6EF7C07EA81
:102760000C070784028B018C4FF6FF7707EA0416EB
:1027700040F6FF473A404FF6FF7707EA03373A4300
:102780004FF6FF7707EA05273A43114FB8420ED0BC
:10279000104FB8420BD0B0F1804F08D00E4FB84266
:1027A00005D00E4FB84202D00D4FB84206D14FF6B9
:1027B000DF77394046F01007394305E04FF65F7781
:1027C000394044F01007394302830184F0BD000012
:1027D000002C01400034014000040040000800408B
:1027E000000C0040F0B50C461546002200210026E2
:1027F000078C4FF6FF6C07EA0C070784828B018C6D
:102800004FF6FF7707EA04264FF60C773A404FF66B
:10281000FF7707EA03172F433A43114FB8420ED010
:10282000104FB8420BD0B0F1804F08D00E4FB842D5
:1028300005D00E4FB84202D00D4FB84206D14FF628
:10284000FF57394046F48077394305E04FF2FF5790
:10285000394044F48077394382830184F0BD00001D
:10286000002C0140003401400004004000080040FA
:10287000000C0040F0B50C46154600220021002651
:10288000078C4EF6FF7C07EA0C070784828B018CCD
:102890004FF6FF7707EA043640F6FF473A404FF617
:1028A000FF7707EA05273A434FF6FF7707EA033732
:1028B0003A43114FB8420ED0104FB8420BD0B0F18E
:1028C000804F08D00E4FB84205D00E4FB84202D00C
:1028D0000D4FB84206D14DF6FF77394046F4805788
:1028E000394305E047F6FF57394044F480573943F0
:1028F00082830184F0BD0000002C014000340140BF
:102900000004004000080040000C004000B587B003
:1029100001210846FFF748FD01210D20FFF764FD66
:1029200001212F48FFF72CF801212E48FFF728F846
:1029300001212D48FFF724F84FF40040ADF80000C6
:1029400004208DF8030069462848FEF78DFF082013
:10295000ADF8000004208DF8030069462448FEF716
:1029600083FF04A800F08EFD0020ADF810004FF6A4
:10297000FF70ADF814000020ADF81600ADF812009D
:1029800004A94FF0804000F02BFD00231A460321DC
:102990004FF0804000F0F8FA01A800F07DFB0A201B
:1029A000ADF80C0001A9400700F020FB01218807C9
:1029B00000F0E4F901221146900700F076FB0021B7
:1029C0004FF0804000F0DEFC47F6FF704FF0804192
:1029D00088840121880700F0D7F907B000BD000006
:1029E000000118000004300000023000000801401F
:1029F000000C014030B587B005460C4601212C483B
:102A0000FEF7BEFF0020ADF81600ADF81450ADF88B
:102A10001200ADF8104004A9264800F0E1FC702037
:102A2000ADF800000220ADF808000120ADF802006A
:102A30000020ADF8060069461E4800F03FFB082163
:102A40001C4800F087FB0120ADF802000020ADF823
:102A500006006946174800F087FB0821154800F07A
:102A6000D5FB0120ADF802000020ADF80600694654
:102A7000104800F0D9FB08210E4800F025FC012089
:102A8000ADF802000020ADF806006946094800F0E4
:102A900025FC0821074800F05FFC0121054800F0F3
:102AA00061F90121034800F06FF907B030BD000063
:102AB00000081A000004004000B587B0012104207E
:102AC000FFF772FC01210820FFF78EFCC020ADF853
:102AD000000004208DF8030069461F48FEF7C4FE7D
:102AE00004A800F0CFFC0020ADF810004FF6FF70F6
:102AF000ADF814000020ADF81600ADF8120004A9DE
:102B0000164800F06DFC00231A460321134800F01C
:102B10003BFA01A800F0C0FA0A20ADF80C0001A9A8
:102B20000E4800F063FA01210C4800F027F9012259
:102B300011460A4800F0B9FA0021084800F022FCCA
:102B400047F6FF700549243108800121034800F051
:102B50001BF907B000BD0000000C01400008004058
:102B600000B587B001210820FFF71EFC01210820D5
:102B7000FFF73AFC06A8FEF74BFF0320ADF818005C
:102B800004208DF81B0003208DF81A0006A92048A8
:102B9000FEF76AFE1F4800F003F903A800F072FC7C
:102BA0004FF6FF70ADF810000020ADF80C00ADF846
:102BB0001200ADF80E0003A9164800F011FC002326
:102BC0001A460321134800F0DFF9684600F064FA62
:102BD0000A20ADF8080069460E4800F007FA012106
:102BE0000C4800F0CBF8012211460A4800F05DFACB
:102BF0000021084800F0C6FB47F6FF700549243164
:102C000008800121034800F0BFF807B000BD0000B4
:102C100000080140000C004010B50121074800F0F9
:102C2000D4F948B10121054800F0ABF8044B054A3E
:102C300005490648FEF7F4FE10BD000000140040F0
:102C4000800000207C00002078000020740000201C
:102C50007FB505460C4601212020FFF7A5FB00208B
:102C6000ADF80A00ADF80600ADF80850ADF8044024
:102C700001A90D4800F0B4FB012211460A4800F0FA
:102C800014FA37208DF8000002208DF801008DF82D
:102C9000020001208DF803006846FFF70DFA0121BC
:102CA000014800F071F87FBD0014004000B587B006
:102CB00001214803FFF798FB01211020FFF794FB47
:102CC00006A8FEF7A5FEC020ADF8180004208DF878
:102CD0001B0003208DF81A0006A92048FEF7C4FD4A
:102CE0001F4800F05DF803A800F0CCFB4FF6FF7022
:102CF000ADF810000020ADF80C00ADF81200ADF8F2
:102D00000E0003A9164800F06BFB00231A460321AE
:102D1000134800F039F9684600F0BEF90A20ADF812
:102D2000080069460E4800F061F901210C4800F0E6
:102D300025F8012211460A4800F0B7F90021084899
:102D400000F020FB47F6FF7005492431088001217F
:102D5000034800F019F807B000BD00000010014062
:102D60000034014021B1028842F08002028004E078
:102D700002884FF67F731A4002807047CA4302826E
:102D80007047CA430282704721B1028842F00102B3
:102D9000028004E002884FF6FE731A4002807047FA
:102DA00010B504466848844208D10121C014FFF7D9
:102DB0002BFB0021E014FFF727FBC4E0B4F1804FA8
:102DC00008D101210846FFF7FFFA00210120FFF793
:102DD000FBFAB8E05D48844208D101210220FFF7E8
:102DE000F3FA00210220FFF7EFFAACE058488442E2
:102DF00008D101210420FFF7E7FA00210420FFF7A2
:102E0000E3FAA0E05348844208D101210820FFF7EB
:102E1000DBFA00210820FFF7D7FA94E04E488442FD
:102E200008D101211020FFF7CFFA00211020FFF771
:102E3000CBFA88E04948844208D101212020FFF7DD
:102E4000C3FA00212020FFF7BFFA7CE04448844207
:102E500008D101214014FFF7D7FA00216014FFF7D1
:102E6000D3FA70E03F48844209D10121C804FFF73A
:102E7000CBFA00214FF40020FFF7C6FA63E03A488E
:102E8000844209D101210805FFF7BEFA00214FF461
:102E90008010FFF7B9FA56E03448844209D1012185
:102EA0004805FFF7B1FA00214FF40010FFF7ACFA24
:102EB00049E02F48844208D101214020FFF784FADD
:102EC00000214020FFF780FA3DE02A48844208D1E3
:102ED00001218020FFF778FA00218020FFF774FAA3
:102EE00031E02548844208D101218015FFF76CFAB2
:102EF0000021A015FFF768FA25E02048844209D197
:102F000001210804FFF780FA00214FF48030FFF719
:102F10007BFA18E01A48844209D101214804FFF7DE
:102F200073FA00214FF40030FFF76EFA0BE01548FA
:102F3000844208D101218804FFF766FA00214FF48A
:102F40008020FFF761FA10BD002C01400004004012
:102F500000080040000C0040001000400014004039
:102F600000340140004C0140005001400054014039
:102F700000180040001C00400020004000400140BC
:102F80000044014000480140F0B50C4615461E467D
:102F90000021002200230189028B038C4FF6F87771
:102FA000394021434FF6FC473A4040F201173A437B
:102FB0004FF6DD773B404FF6FF7707EA06172F43C2
:102FC0003B43018102830384F0BD30B502460020FB
:102FD00000230024158A05EA0103958905EA010406
:102FE00013B10CB1012000E0002030BD70B50546E2
:102FF0000C46244885420ED0234885420BD0B5F1BB
:10300000804F08D02148854205D02148854202D012
:103010002048854200D100E000BF208850B92389B4
:10302000A28861882846FFF751FBE188284600F016
:10303000ABF925E0208804280AD12389A288618879
:103040002846FFF783FBE188284600F0A6F917E041
:10305000208808280AD12389A28861882846FFF79A
:10306000C1FBE188284600F0A5F909E02389A28880
:1030700061882846FFF7FEFBE188284600F0A3F9A7
:1030800070BD0000002C01400034014000040040ED
:1030900000080040000C0040002101804180012117
:1030A00081800021C180018170471AB183890B435F
:1030B000838102E083898B438381704770B500244C
:1030C00000220023058C4FF6FE7635400584028CE5
:1030D0008388048B4FF68F752C40B51E2C400D88CD
:1030E0002C43751E2A400D892A434D882A43144DCE
:1030F000A8420BD0134DA84208D0134DA84205D0CA
:10310000124DA84202D0124DA84213D14FF6F775C6
:103110002A404D892A434FF6FB752A408D882A4361
:103120004FF6FF652B404FF6FF552B408D892B4303
:10313000CD892B4383800483CD888586028470BD2E
:10314000002C014000340140004001400044014097
:10315000004801400A460021018B4FF6F7731940E1
:10316000114301837047000070B500240022002342
:10317000058C4FF6EF7635400584028C8388048BEE
:1031800048F6FF752C404FF6FF452C400D884FF652
:10319000FF7606EA05252C434FF6DF752A400D8998
:1031A00006EA05152A434D8806EA05152A43154DFA
:1031B000A84202D0144DA8421DD14FF67F752A4077
:1031C0004D894FF6FF7606EA05152A434FF6BF757F
:1031D0002A408D8806EA05152A434FF6FF352B4015
:1031E0004FF2FF752B408D8906EA85052B43CD896B
:1031F00006EA85052B4383800483CD8805870284F6
:1032000070BD0000002C0140003401400A4600213E
:10321000018B4FF2FF7319404FF6FF7303EA02234D
:10322000194301837047000070B500240022002379
:10323000058C4FF6FF6635400584028C8388848BAD
:103240004FF68F752C404FF6FC752C400D882C43A3
:103250004FF6FF552A400D894FF6FF7606EA052501
:103260002A434D8806EA05252A43154DA84202D077
:10327000144DA8421DD14FF2FF752A404D894FF6DB
:10328000FF7606EA05252A434FF6FF352A408D884A
:1032900006EA05252A434EF6FF752B404DF6FF75CD
:1032A0002B408D8906EA05152B43CD8906EA0515C5
:1032B0002B4383808483CD888587028470BD000082
:1032C000002C0140003401400A460021818B4FF65A
:1032D000F7731940114381837047000070B50022D5
:1032E00000230024058C4EF6FF7635400584038CC0
:1032F0008488828B48F6FF752A404FF6FF452A40A6
:103300000D884FF6FF7606EA05252A434DF6FF7530
:103310002B400D8906EA05352B434D8806EA053515
:103320002B430B4DA84202D00A4DA84208D14BF6C0
:10333000FF752C408D894FF6FF7606EA85152C43E4
:1033400084808283CD88A0F84050038470BD000043
:10335000002C0140003401400A460021818B4FF2CD
:10336000FF7319404FF6FF7303EA02231943818369
:103370007047818670470187704781877047A0F842
:103380004010704781847047028B4FF6F3731A40E8
:103390000283028B0A4302837047028B4FF2FF3392
:1033A0001A400283028B4FF6FF7303EA01231A438C
:1033B00002837047828B4FF6F3731A408283828BAD
:1033C0000A4382837047828B4FF2FF331A40828315
:1033D000828B4FF6FF7303EA01231A4382837047FF
:1033E000002202881D4B98420ED01D4B98420BD0F4
:1033F000B0F1804F08D01B4B984205D01A4B984231
:1034000002D01A4B984204D14FF68F731A404B8862
:103410001A43174B984207D0164B984204D04FF6E8
:10342000FF431A40CB881A4302808B8883850B8820
:1034300003850A4B98420BD0094B984208D00E4B9B
:10344000984205D00D4B984202D00D4B984201D1C5
:103450000B7A03860123838270470000002C014011
:10346000003401400004004000080040000C00400F
:1034700000100040001400400040014000440140A2
:10348000004801404FF6FF71818000210180C1801A
:10349000418001727047000001B588B00898092882
:1034A00067D2DFE800F0660567C9FDFCFBFAF900AA
:1034B000FE48007801282CD1FD49FE48006802F042
:1034C00071FC0490FC48006802F020FC0390049911
:1034D00002F070FD059002F0DDFBF5490790F5481C
:1034E000006802F05FFC0490F448006802F00EFCF3
:1034F0000390049902F09EFA059002F0CBFB06902F
:10350000EF480368EF480268DDE90601FFF76CF851
:103510002FE0E648007802282BD1E549E54800680D
:1035200002F040FC0490E448006802F0EFFB0390D6
:10353000049902F07FFA059002F0ACFBDC49079099
:10354000DC48006802F02EFC0490DC48006802F0C1
:10355000DDFB0390049902F02DFD059002F09AFB2B
:103560000690D7480368D7480268DDE90601FFF7EF
:103570003BF887E2CD48007801282CD1CC49CD48D2
:10358000006802F00FFC0490CD48006802F0BEFB1A
:103590000390049902F04EFA059002F07BFBC449B7
:1035A0000790C448006802F0FDFB0490C54800681D
:1035B00002F0ACFB0390049902F0FCFC059002F0D1
:1035C00069FB06900246BC48079B0168BB4800683F
:1035D000FFF70AF82FE0B548007802282BD1B4494C
:1035E000B448006802F0DEFB0490B548006802F0C1
:1035F0008DFB0390049902F0DDFC059002F04AFB7C
:10360000AB490790AB48006802F0CCFB0490AD4892
:10361000006802F07BFB0390049902F00BFA05901E
:1036200002F038FB06900246A348079B0168A348B6
:103630000068FEF7D9FFB1E39C480078012852D119
:10364000A1499C48006802F0ADFB02909C480068CC
:1036500002F05CFB0190029902F0ACFC039002F0D6
:1036600019FB994907909348006802F09BFB029070
:103670009448006802F04AFB0190029902F0DAF9DE
:10368000039002F007FB904906908A48006802F018
:1036900089FB0290884804E00BE3A8E255E2F2E1DE
:1036A00072E0006802F032FB0190029902F082FCA5
:1036B000039002F0EFFA844905907E48006802F01A
:1036C00071FB02907D48006802F020FB0190029996
:1036D00002F0B0F9039002F0DDFA049005A90EC9DA
:1036E000FEF782FF4FE07148007802284BD17649FF
:1036F0007048006802F056FB02907148006802F0C2
:1037000005FB0190029902F095F9039002F0C2FACC
:103710006D4907906748006802F044FB02906948D1
:10372000006802F0F3FA0190029902F043FC039062
:1037300002F0B0FA644906905E48006802F032FB7D
:1037400002905D48006802F0E1FA0190029902F0EF
:1037500071F9039002F09EFA5B49059055480068A4
:1037600002F020FB02905548006802F0CFFA019069
:10377000029902F01FFC039002F08CFA049005A954
:103780000EC9FEF731FF09E34848007801287CD1D3
:103790004E4801684748006802F004FB06904C4818
:1037A000006802F0B3FA0590069902F043F949491E
:1037B000079002F0C3FA13D2444801683D480068FC
:1037C00002F0F0FA06904448006802F09FFA059073
:1037D000069902F02FF9079002F05CFA3C49086064
:1037E0003A4801683348006802F0DCFA06903B482A
:1037F000006802F08BFA0590069902F0DBFB324973
:10380000079002F09BFB13D23048016829480068FA
:1038100002F0C8FA06903048006802F077FA059086
:10382000069902F0C7FB079002F034FA2B490860B2
:10383000264801681F48006802F0B4FA069028483C
:10384000006802F063FA0590069902F0B3FB1E4986
:10385000079002F073FB13D21C48016815480068FA
:1038600002F0A0FA06901C48006802F04FFA05909A
:10387000069902F09FFB079002F00CFA18490860C5
:10388000124801680B48006800E04DE002F08AFA37
:1038900006901448006802F039FA0590069902F083
:1038A000C9F80C49079002F049FA1DE02C000020ED
:1038B00000008C423000002098000020940000207E
:1038C000A00000209C0000200000C842DC00002076
:1038D0008400002000803B45E00000208C00002098
:1038E000880000209000002013D2FE480168FE48A6
:1038F000006802F057FA0690FC48006802F006FAE9
:103900000590069902F096F8079002F0C3F9F8497D
:103910000860F8480368F8480268F8480168F84801
:103920000068FEF761FEADE0F64800780228FAD1A3
:10393000EC480168EC48006802F034FA0690F2485E
:10394000006802F0E3F90590069902F033FBEF49B5
:10395000079002F0F3FA13D2E2480168E2480068E7
:1039600002F020FA0690E148006802F0CFF90590D5
:10397000069902F01FFB079002F08CF9E2490860FB
:10398000D8480168D848006802F00CFA0690E04870
:10399000006802F0BBF90590069902F04BF8DD498A
:1039A000079002F0CBF913D2CE480168CE480068E8
:1039B00002F0F8F90690CD48006802F0A7F90590EA
:1039C000069902F037F8079002F064F9D0490860D0
:1039D000C4480168C448006802F0E4F90690CE4883
:1039E000006802F093F90590069902F023F8C9499E
:1039F000079002F0A3F913D2BA480168BA480068E8
:103A000002F0D0F90690B948006802F07FF90590FD
:103A1000069902F00FF8079002F03CF9BE490860E1
:103A2000B0480168B048006802F0BCF90690B048A0
:103A3000006802F06BF90590069902F0BBFAB349F1
:103A4000079002F07BFA13D2A6480168A6480068E6
:103A500002F0A8F90690A548006802F057F9059011
:103A6000069902F0A7FA079002F014F9A04908603D
:103A7000A0480368A0480268A0480168A048006800
:103A8000FEF7B2FD8AE19F48007801282CD1A349B6
:103A90009548006802F086F904909748006802F0A3
:103AA00035F90390049901F0C5FF059002F0F2F892
:103AB0009A4907908C48006802F074F90490904885
:103AC000006802F023F90390049902F073FA05905C
:103AD00002F0E0F80690874803688848079A016872
:103AE0000698FEF781FD2FE08648007802282BD14A
:103AF0008A497D48006802F055F904907E480068C4
:103B000002F004F90390049902F054FA059002F0CF
:103B1000C1F8824907907448006802F043F90490A4
:103B20007748006802F0F2F80390049901F082FFF0
:103B3000059002F0AFF806906E4803686F48079A48
:103B400001680698FEF750FD28E16E4800780128CC
:103B500024D173496448006802F024F97149059042
:103B600002F01DFA069002F0B1F880B2014607900B
:103B7000022000F065F96A495B48006802F012F91A
:103B80006849059001F056FF069002F09FF880B258
:103B900001460790042000F053F927E059480078C7
:103BA000022823D15E495048006802F0FBF85D49C5
:103BB000059001F03FFF069002F088F880B20146C0
:103BC0000790022000F03CF955494748006802F090
:103BD000E9F85449059002F0E2F9069002F076F80F
:103BE00080B201460790042000F02AF9D6E045484B
:103BF000007801282CD149493B48006802F0D2F8EE
:103C000004903C48006802F081F80390049901F0A8
:103C100011FF059002F03EF84049079032480068D5
:103C200002F0C0F804903548006802F06FF8039085
:103C3000049902F0BFF9059002F02CF806902E4886
:103C4000079B02682E4806990068FEF7CDFC2FE01E
:103C50002C48007802282BD130492348006802F014
:103C6000A1F804902348006802F050F803900499EA
:103C700002F0A0F9059002F00DF8284907901A48C3
:103C8000006802F08FF804901C48006802F03EF8CB
:103C90000390049901F0CEFE059001F0FBFF069021
:103CA0001548079B0268164806990068FEF79CFCB9
:103CB00074E014480078012847D119490A4800687F
:103CC00002F070F81749059001F0B4FE069001F07B
:103CD000FDFF80B201460790012000F0B1F81049C5
:103CE000014821E0DC00002030000020E00000203E
:103CF00090000020A00000209C00002098000020E0
:103D0000940000202C000020840000200000C84205
:103D10008C00002000803B458800002000004842C5
:103D20000000F04100004844006802F03BF81D49E3
:103D3000059002F034F9069001F0C8FF80B2014608
:103D40000790032000F07CF827E01748007802284D
:103D500023D116491648006802F024F8114905904D
:103D600002F01DF9069001F0B1FF80B20146079004
:103D7000012000F065F80D490D48006802F012F8C6
:103D80000849059001F056FE069001F09FFF80B2B1
:103D900001460790032000F053F800BF00BF09B0B0
:103DA00000BD0000000048442C0000200000F0414D
:103DB0003000002010B521480068012803D01F48BA
:103DC0000068052803D10120FFF766FB34E01B489B
:103DD00000680A2803D10220FFF75EFB2CE0174899
:103DE0000068032802D1FFF757FB25E0134800685D
:103DF000022803D10420FFF74FFB1DE00F480068A5
:103E0000042803D10520FFF747FB15E00B480068A5
:103E10000A2803D10620FFF73FFB0DE007480068A2
:103E200018B90720FFF738FB06E0044800680A28A5
:103E300002D10820FFF730FB10BD00002800002051
:103E400070B504460D46012C0BD0022C04D0032C77
:103E50000CD0042C14D10EE029460A48FFF789FA49
:103E60000EE029460748FFF786FA09E0294605488B
:103E7000FFF783FA04E029460248FFF780FA00BF03
:103E800000BF70BD0004004010B50446214605483F
:103E900000F04FFB00BF8021024800F07DFA0028AF
:103EA000F9D010BD0044004010B504460748017821
:103EB0000078401C054A107005484454012240F225
:103EC0002771044800F09FFA10BD00000501002092
:103ED000300300200048004010B504462146054844
:103EE00000F027FB00BF4021024800F055FA0028EF
:103EF000F9D010BD004C004070B540F22551524839
:103F000000F057FA002873D040F225514E4800F0D7
:103F1000DAF94D4800F008FBC4B2382C68D14B48A0
:103F2000007818BB012000F09BFC00204849086085
:103F300017E04849464A126851F8220000F06CFF29
:103F400005462878FFF7C8FF322000F063FC42489E
:103F50000068401C404908603D480068401C3C49DE
:103F600008603B4800680328E3DB67E037480078D7
:103F700003281BD1FDF79EFE00BF384800680028CB
:103F8000FBD000BF354800680028FBD100F0D8FA0C
:103F9000FDF7D0FE002032490860324908603249FE
:103FA0000860324908603249086047E027480078D5
:103FB000062804D100210120FDF798FF3EE02348A8
:103FC000007809283AD1FDF7F5FE00BF2348001D0F
:103FD000006820B92148001F00680028F6D0FDF7CE
:103FE00033FE1E48001D006818B1FDF751FF06E0C2
:103FF00029E01A48001F006808B1FDF71BFF00BF49
:104000001648001D00680028FAD01448001F0068F8
:104010000028F5D0FDF718FE16480078012804D1D5
:10402000154800681549086006E0154912480068FF
:1040300001F0B8FE11490860FDF7C6FD034800789D
:10404000401C0249087070BD004C00407000002008
:10405000A800002064000020AC00002004012242DF
:10406000C4000020C0000020BC000020B8000020D8
:10407000C80000202C00002030000020DC000020C0
:10408000000080BF70B540F22551204800F091F942
:1040900000283AD01D4800F047FAC4B21C4820F866
:1040A0001540681CC5B21B48008800F4004060BB86
:1040B0001848008800F4804068B10A2C03D0002022
:1040C0001449088021E01348008840F40040114959
:1040D0000880002519E00D2C06D10E48008840F418
:1040E00080400C49088010E00A480088C0F30D00A9
:1040F00009490C5407480088401C064908800846B6
:104100000088C72801DD0020088070BD003801400C
:104110003004002010010020F804002010B540F207
:104120002551384800F045F9002869D0202135484C
:1041300000F0C0F8334800F0F7F9C1B23248027815
:104140000078401C304B1870304881540078B328F8
:1041500002D00020194608702B480078022806D1AA
:104160002A484078B32802D0002027490870264802
:104170000078072844DB2648006830B922480278D6
:1041800022492448FCF723F937E021480068012838
:1041900020D11D4802781D491F48FCF718F900BFBF
:1041A000002000F099FA0028FAD1401E1849086052
:1041B0003520FFF769FE3320FFF78EFE012000F067
:1041C0004FFBFDF7F7FD002014490860F02014496B
:1041D000086012E00E48006802280ED10A480278F2
:1041E0000A491048FCF7F3F801200F49087000F065
:1041F000DDF94FF0FF3006490860002002490870E1
:1042000010BD000000440040ED000020E50000204B
:1042100054000020360000203E000020D80000207E
:10422000CC000020460000207300002010B540F2B2
:1042300027711C4800F0BDF8E0B11B4802780078F7
:10424000401C194B18701948815C164800F071F930
:1042500040F22771134800F036F8134800781449EB
:104260000978884217D1002240F227710D4800F0EA
:10427000CAF810E040F225510A4800F09AF850B10F
:104280000849091D0988C8B2FDF7FEF840F225511A
:10429000044800F018F84FF45871024800F013F881
:1042A00010BD000000480040040100203003002041
:1042B0000501002001F40072B2F5007F00D100BFBB
:1042C000CA430280704710B50022002340F66A14EA
:1042D000A14200D100BF0A1201249440A3B2DC43E2
:1042E000048010BD21B1828942F40052828104E031
:1042F00082894DF6FF731A408281704710B50446DB
:104300002048844209D101218803FEF77DF800216D
:104310004FF48040FEF778F832E01B48844209D120
:1043200001214804FEF750F800214FF40030FEF759
:104330004BF825E01548844209D101218804FEF795
:1043400043F800214FF48020FEF73EF818E01048B3
:10435000844209D10121C804FEF736F800214FF448
:104360000020FEF731F80BE00A48844208D1012111
:104370000805FEF729F800214FF48010FEF724F815
:1043800010BD0000003801400044004000480040DB
:10439000004C00400050004002460020B1F5007F74
:1043A00000D100BF13880B400BB1012000E00020BA
:1043B000704770B50246002400230025002040F617
:1043C0006A16B14200D100BFC1F3421501F01F03CC
:1043D000012606FA03F3012D02D19689334006E047
:1043E000022D02D1168A334001E0968A33400C1226
:1043F000012606FA04F41688344013B10CB10120EA
:1044000000E0002070BDF0B5034600240026002522
:10441000002040F66A17B94200D100BF1846C1F328
:10442000421401F01F06012707FA06F5012C01D1FD
:104430000C3004E0022C01D1103000E014301AB12D
:1044400007682F43076002E00768AF430760F0BDCD
:104450002DE9F04786B005460E460024A24600BF6F
:10446000A1460027B08900B100BF2F462C8A4CF628
:10447000FF700440F08804432C82AC894EF6F310A0
:104480000440B08831890843718908430443AC81F2
:10449000AC8A4FF6FF400440B0890443AC8201A8C7
:1044A000FDF7C2FF1F48874202D1DDF810A001E0EE
:1044B000DDF80CA0A88900F4004040B10AEBCA0066
:1044C00000EB0A1031684900B0FBF1F807E00AEB95
:1044D000CA0000EB0A1031688900B0FBF1F86420D3
:1044E000B8FBF0F004012009642101FB1089A889C0
:1044F00000F4004040B1322000EBC900B0FBF1F005
:1045000000F00700044308E0322000EB09106421AA
:10451000B0FBF1F000F00F0004432C8106B0BDE8C1
:10452000F08700000038014001468888C0F3080089
:104530007047C1F308028280704700BFFEE70000A9
:104540000A48006820F02000084908600846006812
:1045500020F0080008600846006840F0010008608C
:104560000846006840F002000860704700040140FF
:10457000490050EAC12018BF04204A0D18BF40F07E
:10458000010040F2FF72B2EB515F08BF40F0020041
:10459000012808BF0520704730380A2801D20120C1
:1045A000704700207047014600BF704770B5002477
:1045B000002500BF10E000250BE01B49A01C085C93
:1045C0001A4951F82510884202D1681C184908552B
:1045D0006D1C032DF1DB641C032CECDB1449887883
:1045E00000F01AFC134908601149087800F014FC27
:1045F00006783046FFF770FC142000F00BF90C49E8
:10460000487800F009FC06783046FFF765FC142076
:1046100000F000F90649887800F0FEFB0678304685
:10462000FFF75AFC70BD0000460000203401002056
:104630004E000020D0000020012803D17B22244B13
:104640001A601EE0022803D18422214B1A6018E070
:10465000032803D1D5221E4B1A6012E0042803D18F
:10466000E7221B4B1A600CE0052804D14FF49C7222
:10467000174B1A6005E0062803D140F24112144B93
:104680001A60012903D17B22124B1A601EE0022915
:1046900003D184220F4B1A6018E0032903D1D522DD
:1046A0000C4B1A6012E0042903D1E722094B1A606F
:1046B0000CE0052904D14FF49C72064B1A6005E00A
:1046C000062903D140F24112024B1A6070470000E4
:1046D0005C000020600000203EB50346002100225F
:1046E000002000900190029000BF05E0334C881C30
:1046F000205C4DF82100491C0329F7DB13B1012B85
:1047000038D11BE02E480068642490FBF4F02D4C57
:1047100020602B4800680A2490FBF4F090FBF4F52D
:1047200004FB1500274C6060254800680A2490FBB4
:10473000F4F504FB1500234CA0601BE02248006840
:10474000642490FBF4F01F4C20601F4800680A248A
:1047500090FBF4F090FBF4F504FB1500194C60603D
:10476000194800680A2490FBF4F504FB1500154C69
:10477000A06000BF00BF002110E000220BE0114844
:1047800050F821005DF82240A04203D1501C0F4C8C
:1047900044F82100521C032AF1DB491C0329ECDBFD
:1047A0000A48006838B10948406820B10748806865
:1047B00008B100203EBD0120FCE700003E000020C3
:1047C0005C00002034010020600000206400002014
:1047D00010B56FF00400FDF733FF0A4800680A497E
:1047E000B0FBF1F0094908700846007800EB400181
:1047F000C1EBC0104FF6FF7101EAC0000449088008
:1048000010BD0000F000002000127A000601002018
:10481000080100200146114A12884A434FF0E02364
:104820005A6100229A611A46126942F001021A6125
:1048300000BF4FF0E022106900F001021AB100F44D
:104840008032002AF5D04FF0E022126922F00102F6
:104850004FF0E0231A6100229A617047080100209E
:10486000002100EB4002C2EBC0124FF6FF7303EAD7
:10487000C20007E041F2883100BF0A00A1F1010344
:1048800099B2FAD10200A0F1010398B2F2D17047B7
:1048900000BF054A128802F04002002AF9D0C2B2D5
:1048A000014B1B1D1A8070470038014070B504464B
:1048B000A08CA0F5FE40FF3805B247F6FF70A0843B
:1048C000B4F1804F05D11D48006828441B49086099
:1048D00019E01B48844205D11A4800682844194948
:1048E000086010E01848844205D118480068284440
:1048F0001649086007E01648844204D1154800684C
:104900002844144908600D48006800F0ADFA0646D6
:104910000C48006800F0A8FA06440C48006800F053
:10492000A3FA06440B48006800F09EFA30442821A0
:1049300090FBF1F008490860284670BDB8000020DF
:1049400000080040BC000020000C0040C000002017
:1049500000340140C4000020C800002010B5B14858
:104960000068B149096888426FDBFDF781F80020D3
:10497000AE490860AE490860AE490860AE490860BB
:10498000A8490860AD48006898B9FDF793F932204E
:10499000FFF77AFA00BFA34800682828FBDBFDF781
:1049A00053F94FF41B70A04908600120FFF758FF2E
:1049B00029E1A2480068012818D1FDF745F9FDF763
:1049C000B9F900BF974800688C28FBDB00BF9C4802
:1049D00000680028FBD0FDF737F9012099490860ED
:1049E000FFF73EFF3320FFF74FFA0CE193480068D2
:1049F000022860D101209449086000BF9048083027
:104A000000680028FAD09148006808B9012000E049
:104A100000208E4908608E48D0F8940108B9012022
:104A200000E000208949091D08608948D0F8A001EC
:104A300008B9012000E00020844910310860854851
:104A4000D0F8900110B9012001E0EAE000207C4993
:104A5000843108608048D0F8B00108B9012000E036
:104A600000207E4908607C48D0F8B80108B90120D0
:104A700000E000207949083108607748D0F8B40197
:104A800008B9012000E000207449091D086072483F
:104A9000D0F8BC0108B9012000E000206F490C31BA
:104AA00008603220FFF7B6FEFDF7CEF84FF4027033
:104AB0005D490860A7E06148006803287DD100BF18
:104AC0005F4800680028FBD06048006808B90120F2
:104AD00000E000205D4908605D48D0F8940108B905
:104AE000012000E000205949091D08605848D0F80D
:104AF000A00108B9012000E00020544910310860ED
:104B00005448D0F8900108B9012000E000204C4939
:104B1000843108605048D0F8B00108B9012000E0A5
:104B200000204E4908604C48D0F8B80108B901206F
:104B300000E000204949083108604748D0F8B40136
:104B400008B9012000E000204449091D08604248DE
:104B5000D0F8BC0108B9012000E000203F490C3129
:104B600008603220FFF756FEFDF76EF8C820FFF709
:104B700051FE00202D4908602D4908602D4908602C
:104B80002D49086027490860FDF794F800BF2548C3
:104B900000684B28FBDB01202B4908603520FFF71C
:104BA0009BF9FDF751F80220264908600120FFF724
:104BB00057FE3420FFF768F900E004E040F20D20D2
:104BC000194908601FE01D48006804280CD1002026
:104BD0001D490860FDF738F83720FFF77DF940F2EE
:104BE0002B20114908600EE01448006805280AD1FE
:104BF000FDF72AF8FDF79EF800BF0A480068BE28B6
:104C0000FBDBFDF721F8002008490860084908602F
:104C1000084908600849086008480068401C0749BE
:104C2000086010BDC8000020CC000020C400002097
:104C3000C0000020BC000020B80000202800002098
:104C40000C01224254000020D80000209001214293
:104C5000000021420000224200802142B081214216
:104C600008B501211020FDF7BFFB0121C803FCF7A7
:104C700087FE2F20ADF8000004208DF803000320EC
:104C80008DF8020069460248FCF7EEFD08BD000001
:104C9000001001400A2450A050490860FFF798FD19
:104CA000E001FDF741FAFDF753FBFFF7D9FF0A20BA
:104CB000FFF7B0FD4FF4E13000F03AFB4FF4E13084
:104CC00000F086FB4FF4E13000F0D4FB1420FFF736
:104CD000A1FD07E042A0FBF7ABFA601EC4B21420AE
:104CE000FFF798FD002CF5D148214FF47A70FDF7BD
:104CF00081FEFCF7C7FCFCF72FFFFDF71FFAFDF75D
:104D000005FEFDF7D9FEFDF72BFFFDF7CFFF41F6BE
:104D10001F413120FDF79CFF4FF4E130FCF7C0FE4E
:104D20004FF4FA60FFF776FD0A213048FBF794FB59
:104D3000FCF79EFE0420FFF793FD3220FFF7CCF82E
:104D400000210320FDF7D2F844E029480068401C08
:104D5000274908600846006832280EDD25A0FBF7C9
:104D600067FA002022490860254800F0D5FA64203F
:104D7000FFF750FD234800F0CFFA2349B1F90400B2
:104D800000F0C4FF06464FF08E4100F0C1FE05461C
:104D90001E4901F007F81E49086000211C48006800
:104DA00000F0CCFF09D21A48006880F00040184992
:104DB000086001201749087002E0022015490870B8
:104DC000FFF7CCFD00F05CF900F056F800F01AF99E
:104DD000FEF7F0FFB9E7000030000000D00000202F
:104DE000434C532830290D0A0000000034000020F5
:104DF000D4000020434C532830293B0D0A0000000A
:104E000003000020000000202000002000003443A8
:104E1000300000202C00002070B50446002500263C
:104E2000261E00DA644200BF0A2094FBF0F100FB6A
:104E300011403030C2B228466D1C0A490A540A207B
:104E400094FBF0F4002CEFDC002E03DA2D22284630
:104E50006D1C0A54002003494855084600F049FAE1
:104E600070BD00003A0200200146002901DA4842E4
:104E700000E008467047000038B51E4AD1789078A7
:104E8000FFF7DAFB1C480379C27881781BA0FBF797
:104E9000CFF923480068009022480368224802683E
:104EA0002248016822A0FBF7C3F92B4802682B486F
:104EB00001682BA0FBF7BCF93048836842680168A1
:104EC0002FA0FBF7B5F93848006800903748036811
:104ED000374802683748016837A0FBF7A9F940480E
:104EE000006800F07BFD044622460B463DA0FBF720
:104EF0009FF938BD360000203E000020445334386E
:104F000028302C36302C27636F6C3A25643A2564A0
:104F10003A2564272C31362C30293B0D0A0000003D
:104F2000800000207C000020780000207400002019
:104F3000445334382831302C31302C277370656558
:104F4000643A25642C25642C25642C2564272C3197
:104F5000362C30293B0D0A00600000205C00002048
:104F60004453333228302C3130302C2725642B2504
:104F700064272C31362C30293B0D0A0064000020B8
:104F8000445334382831302C34302C276172647506
:104F9000696E6F3A25642C25642C2564272C3136E4
:104FA0002C30293B0D0A00009000002088000020D2
:104FB0008C00002084000020445334382831302CE9
:104FC00032352C2770776D3A25643A25643A25648A
:104FD0003A2564272C31362C30293B0D0A0000007D
:104FE000300000204453343828302C38302C2772BD
:104FF0006F773A252E3266272C31362C30293B0D1F
:105000000A00000010B51448807828B11248C07812
:1050100010B101201149087010480078D8B110482B
:105020000078C0B90F480068A8B10F48006890B177
:10503000FCF740FE00200D4908600D4908600D494D
:1050400008600D4908600D49086002200349087096
:1050500001200349087010BD360000202D000020FB
:105060002F0000205C00002060000020C400002011
:10507000C0000020BC000020B8000020C8000020B4
:105080002DE9F0475248006840B95248006828B9F5
:105090005148006810B95148006858B300F0C0F892
:1050A0004B48006830B900210120FEF7C9FE0020FE
:1050B0004B4908604748006830B900210220FEF7DC
:1050C000BFFE0020474908604348006830B900210E
:1050D0000320FEF7B5FE0020434908603F48006802
:1050E000002836D100210420FEF7AAFE00203F4907
:1050F00008602EE03E48006800F070FC04463D4A1F
:105100003D4B00F035FC0DD23C480068012820D111
:105110003B480078012802D1FCF78CFE19E0FCF72F
:10512000B7FE16E000231A4619461846FDF75CFA4A
:1051300000202B4908602B4908602B4908602B4947
:1051400008603049086030490860304908603049DB
:1051500008603048006800F063FB064600222E4BD2
:1051600000F006FA04460D462C48006800F058FB93
:10517000804622462B4600F0FBFB27D214480068ED
:10518000B0F5FA7F04DD1248006814381049086051
:1051900010480068B0F5FA7F04DD0E480068143846
:1051A0000C4908600C480068B0F5FA7F04DD0A4835
:1051B000006814380849086008480068B0F5FA7FAC
:1051C00004DD06480068143804490860BDE8F0872B
:1051D000840000208C000020880000209000002027
:1051E00094000020980000209C000020A0000020D7
:1051F000300000209A9999999999E93F2800002058
:105200002C000020C4000020C0000020BC000020B2
:10521000B8000020CC0000200000F83FC8000020AB
:1052200010B521480068FFF71FFE00B21F4908842F
:105230001F480068FFF718FE00B21E4908841E4888
:105240000068FFF711FE00B21C4908841C48006882
:10525000FFF70AFE00B21B4908841B480068FFF7ED
:1052600003FE00B21149488418480068FFF7FCFDAE
:1052700000B21049488416480068FFF7F5FD00B2F7
:105280000E49488413480068FFF7EEFD00B20D494F
:105290004884114B114A12491248FCF7D3FF0220EF
:1052A000FFF7B8FA10BD000084000020A002002023
:1052B00088000020C40200208C000020E8020020AA
:1052C000900000200C030020740000207C000020CF
:1052D0007800002080000020A0000020980000201E
:1052E0009C0000209400002000210160416081604A
:1052F000704710B50246014600E0491C0C78002CAE
:10530000FBD1491E05E013780C7802F8014B01F837
:1053100001399142F7D810BD70B50546002404E06C
:10532000285DFEF7C1FD601CC4B2032CF8DB70BD24
:1053300010B586B00446012144F20400FDF754F88C
:105340004FF40070ADF8140003208DF816001820FB
:105350008DF8170005A91C48FCF786FA4FF4806009
:10536000ADF8140004208DF8170005A91648FCF7C5
:105370007BFA25208DF8000000208DF801008DF8C3
:10538000020001208DF803006846FCF795FE0194A9
:105390000020ADF80800ADF80A00ADF80C00ADF83B
:1053A00010000C20ADF80E0001A90848FFF750F8D6
:1053B000012240F225510548FFF725F80121034855
:1053C000FEF790FF06B010BD000801400038014014
:1053D00010B586B0044601210420FDF705F801212F
:1053E0004804FCF7E1FF0420ADF8140003208DF819
:1053F000160018208DF8170005A91C48FCF734FA90
:105400000820ADF8140004208DF8170005A91748EE
:10541000FCF72AFA26208DF8000000208DF8010004
:105420008DF8020001208DF803006846FCF744FE69
:1054300001940020ADF80800ADF80A00ADF80C00AA
:10544000ADF810000C20ADF80E0001A90848FEF7D9
:10545000FFFF012240F225510548FEF7D4FF01214C
:105460000348FEF73FFF06B010BD000000080140F2
:105470000044004010B586B004460121C804FCF782
:1054800093FF01211020FCF7AFFF2648FEF736FFFF
:105490004FF48060ADF8140003208DF8160018203A
:1054A0008DF8170005A92048FCF7DEF94FF40060DD
:1054B000ADF8140004208DF8170005A91A48FCF770
:1054C000D3F901940020ADF80800ADF80A00ADF85A
:1054D0000C00ADF810000C20ADF80E0001A9114829
:1054E000FEF7B6FF34208DF8000000208DF8010093
:1054F00002208DF8020001208DF803006846FCF7B9
:10550000DBFD012240F225510648FEF77CFF012118
:105510000448FEF7E7FE80210248FEF7CBFE06B006
:1055200010BD0000004C00400010014010B50029E3
:105530000AD00878002807D005487844FBF7A6FB76
:10554000002801D0002010BD0248784410BD0000A2
:105550001E0C0000160C0000491058BFC1F140415C
:105560005B1058BFC3F140438B42EFF3008070479C
:105570002DE9C04130B4DFF8A0C23CEA111418BFD5
:105580003CEA131400F0EC8081EA03051CEA1114D4
:1055900044EAD57418BF1CEA131500F0C780A4EBC9
:1055A00005044FF0004545EAC12145EAC32341EA1D
:1055B000505143EA525304F17F74994204F5003488
:1055C0004FEAC0204FEAC22208BF904200F09C8000
:1055D0004FEA13650FF24016765D4FEA134506FB5E
:1055E00005F7C7F1807706FB07F74FEAD737A7FB28
:1055F00003687642C8F58038A7FB06CE38BFA8F10D
:10560000010807FB08E64FF0000EA6FB028CE6FB44
:1056100003CEDCF1000CCEF1004E38BFAEF1010E2E
:10562000A6FB0C584FF000074FF00005E6FB0E8775
:10563000A1FB08C6A0FB07CE16EB0E0645F1000540
:10564000E1FB076515F1E04E7EBFA4F580345FEA0B
:1056500046066D4116F1800745F100054FEA172710
:105660004FEA066647EA0567A6F1DE46B6F1805FB7
:105670004FEA15251FD9384624F0010C05EBC471FB
:10568000BCF1FE6F01EB0C1102D8F0BCBDE800814B
:1056900024425CBF01F5801E9EEAC47F02D4F0BCA8
:1056A000BDE80081244238D4F0BCA1F1C041BDE87E
:1056B000004100F057B94FEAD22242EA43524FEA82
:1056C000D323A7FB02864FEAD02040EA415007FBD4
:1056D00003661EEA0E0F4FEAD12105FB026658BF92
:1056E000A6EB0056B6EB00564FEA520E4EEAC37ECA
:1056F00018EB0E0E56EB530EBDD518EB02085E41AB
:105700007F1C55F10005B6E74FF480154FF00007F8
:105710004FF000064FF00008ADE7F0BC4FF000007E
:1057200001F1C04101F00041BDE8008111EA0C1F08
:105730000CEA131500D00CE013EA0C1F00F02580D2
:105740004FF00000F0BC81EA030101F00041BDE828
:105750000081F0BCBDE8004181EA030100F002B91C
:10576000F0BCBDE8004170B500F0AEF8097EFC3E2B
:1057700000F007B881EA03014FF0000001F000419A
:10578000704781EA030100F0EDB8F0BCBDE80041CC
:105790004FF0000021497047FFFDFBF9F7F5F4F2E7
:1057A000F0EEEDEBE9E8E6E4E3E1E0DEDDDBDAD8BC
:1057B000D7D5D4D3D1D0CFCDCCCBCAC8C7C6C5C41A
:1057C000C2C1C0BFBEBDBCBBBAB9B8B7B6B5B4B331
:1057D000B2B1B0AFAEADACABAAA9A8A8A7A6A5A41C
:1057E000A3A3A2A1A09F9F9E9D9C9C9B9A999998E0
:1057F0009797969595949393929191908F8F8E8E83
:105800008D8C8C8B8B8A898988888787868585840F
:1058100084838382828181800000FF070000F87FFB
:1058200010F0004248BF4042B0FA80F310FA03F192
:105830000AD0C3F11D0303F580634FEA415002EB28
:10584000035202EBD12170474FF000007047000077
:1058500051EA030C17D41CF5801F58BFBCF5801FFC
:1058600000F10680994218BF704708BF9042704708
:1058700007D711F5801F58BF13F5801F19D499421F
:105880007047894270471CF5801F08D5BCF5801F02
:10589000F7D58B4218BF704708BF824270474FF45C
:1058A000001C1CEB410F38BF1CEB430F01D28B4295
:1058B000704770B500F008F8922449004FF000518D
:1058C0004FF08053FFF748BE0EF1020E2EF0030E8C
:1058D0005EF8046B364205D4012A43EB030515F547
:1058E000001F12D8012841EB010C1CF5001F0CD839
:1058F0000ED14FEAD17C15F5001F0CEB4C0C0CF1CE
:10590000020C08BF4CEBD37C04E04FF0080C01E024
:105910004FEAD37C0CEB4C0526FA05F606F0070699
:10592000B6F1040C06D20EEB860CBDE870404CF0CC
:10593000010C6047DFE80CF0090B02024FF0004158
:105940004FF00000A1F5002170BD19461046012856
:1059500051EB010418BFD4F5001484BF002001F0FE
:10596000004170BD0808A0F500114FEA31017047F1
:1059700053EA010C17D41CF5801F58BFBCF5801FDB
:1059800000F106808B4218BF704708BF8242704703
:1059900007D713F5801F58BF11F5801F19D48B420C
:1059A00070479B4270471CF5801F08D5BCF5801FCF
:1059B000F7D5994218BF704708BF904270474FF41F
:1059C000001C1CEB430F38BF1CEB410F01D2994266
:1059D00070470FB40CBC03BCFFF76BBF43004FEA2A
:1059E000D30C4FEA3C0C43401FBF40070CF1605101
:1059F00013F0FE4F70471CF0006F03D100200CF035
:105A0000004170470CF0004343EA507010B540EA83
:105A1000CC0000F048FA00BF000000924FEA0001FD
:105A2000FFF7A0BF4FF000414FF00000A1F50021AB
:105A30007047000090EA010F48BF81F0004100F17B
:105A4000C082421A3CBF801A89184FEAD0524FF0E8
:105A50007F4C1CEA410FA2EBD15318BF9CEA026FA6
:105A600000F03B804FF0004C4CEA00204CEA012152
:105A700021FA03FC10EB0C0C1ED202F1FF325FEA9C
:105A80001C2040EBC25038BF70471CF07F0F4FEA1C
:105A9000400C18BFBCF17F4F38BF7047C3F12003E3
:105AA000994008BF20F00100BCF17F4F38BF70471C
:105AB000A0F1C04000F03DBA4FEA3C00000A40EBC4
:105AC000C25028BF1CF0FF0F4FEA400CE6D018BFB1
:105AD000BCF17F4F38BF7047EAE79CEA026F05D000
