:020000040800F2
:10000000700A0020150200082D1B0008310E0008A0
:100010009F150008D3080008C73C00080000000036
:100020000000000000000000000000007D1F00082C
:10003000D708000800000000C11C0008E9200008E3
:100040002F0200082F0200082F0200082F020008CC
:100050002F0200082F020008D908000835090008FF
:100060002F020008910900082F0200082F02000843
:100070002F0200082F0200082F0200082F0200089C
:100080002F0200082F0200082F0200082F0200088C
:100090002F0200082F0200082F020008E9090008BB
:1000A0002F0200082F0200082F0200082F0200086C
:1000B0002F0200082F0200082F0200082F0200085C
:1000C0002F0200082F0200082F0200082F0200084C
:1000D0002F020008C53800085D3900082F0200080B
:1000E0002F0200082F0200082F0200082F0200082C
:1000F0002F0200082F0200082F0200082F0200081C
:100100002F0200082F0200082F0200082F0200080B
:10011000893700082F02000881260008C52700083B
:100120002F0200082F0200082F0200082F020008EB
:1001300000F002F800F05FF80AA090E8000C82449A
:100140008344AAF10107DA4501D100F054F8AFF277
:10015000090EBAE80F0013F0010F18BFFB1A43F0A5
:1001600001031847E4970000049800000A444FF088
:10017000000C10F8013B13F0070408BF10F8014B06
:100180001D1108BF10F8015B641E05D010F8016B4B
:10019000641E01F8016BF9D113F0080F1EBF10F8AF
:1001A000014BAD1C0C1B09D16D1E58BF01F801CBD2
:1001B000FAD505E014F8016B01F8016B6D1EF9D555
:1001C0009142D6D37047000000230024002500266A
:1001D000103A28BF78C1FBD8520728BF30C148BFAA
:1001E0000B607047642900F06780002070471FB5DE
:1001F0001FBD10B510BD00F041FB1146FFF7F7FF22
:1002000005F066FE00F05FFB03B4FFF7F2FF03BCEE
:1002100003F00FFE0948804709480047FEE7FEE764
:10022000FEE7FEE7FEE7FEE7FEE7FEE7FEE7FEE7A6
:1002300004480549054A064B70470000ED200008B8
:100240003101000870040020700A002070060020B0
:1002500070060020704710B54C1084EA530404D592
:100260004042C1F1000138BF491E1B4204D5524231
:10027000C3F1000338BF5B1E00F09AF914F0804F01
:1002800004D04042C1F1000138BF491E14F0004FB4
:1002900004D05242C3F1000338BF5B1E10BD000002
:1002A0000FB4044910B503AA029800F05DFA10BC1F
:1002B0005DF814FB300100202DE9F04106460024D2
:1002C00010687529314616A510D0AFF300800028BC
:1002D00002DA404213A507E031688A0701D512A56A
:1002E00002E0490704D511A5012401E0AFF3008025
:1002F00000210A2206F1240709E0B0FBF2FCB0FB62
:10030000F2F302FB1C00303078541846491C0028D8
:10031000F3D123462A463046BDE8F04100F0CAB981
:10032000000000002D0000002B0000002000000055
:100330002DE9F05F894604464FF0000ADFF824B14A
:10034000FB44C0F820A02046E168884700287DD003
:10035000252806D0D4E901219047206A401C20625C
:10036000F1E700255F462046E168884720280646D9
:1003700007DB312E05D2B81910F8200C08B105435F
:10038000F1E7A80701D525F00405C4F81CA0002753
:10039000C4F818A02A2E09D0304603F043FD38B324
:1003A00004EB8708303EC8F8186019E059F8041BC0
:1003B000204604EB87029161E1688847012F0646D9
:1003C00018D1E069002820DA25F020051DE0D8F8D2
:1003D000180000EB800006EB40003038C8F8180029
:1003E0002046E1688847064603F01CFD0028EED150
:1003F000012F0AD02E2E08D12046E16888477F1CA5
:100400000646022F45F02005C4DBA069002803DA68
:10041000404245F00105A061E80701D025F0100534
:10042000A6B1A6F14100192802D8203645F400658E
:100430004A463146204625604D46FFF7D3FE60B15F
:10044000012807D0ED1D25F0070000E007E000F1CE
:10045000080978E705F1040975E730467AE7206A6C
:10046000BDE8F09FAE94000040EA010310B59B0781
:100470000FD1042A0DD310C808C9121F9C42F8D00E
:1004800020BA19BA884201D9012010BD4FF0FF30BF
:1004900010BD1AB1D30703D0521C07E0002010BDD5
:1004A00010F8013B11F8014B1B1B07D110F8013B61
:1004B00011F8014B1B1B01D1921EF1D1184610BD42
:1004C000032A40F2308010F0030C00F0158011F880
:1004D000013BBCF1020F624498BF11F801CB00F858
:1004E000013B38BF11F8013BA2F1040298BF00F8AC
:1004F00001CB38BF00F8013B11F0030300F0468147
:10050000083AC0F0088051F8043B083A51F804CB8F
:10051000A0E80810F5E7121D5CBF51F8043B40F855
:10052000043BAFF30080D20724BF11F8013B11F860
:1005300001CB48BF11F8012B24BF00F8013B00F8A4
:1005400001CB48BF00F8012B704702F0FF0343EADC
:10055000032242EA024200F04DB94FF0000200B51A
:10056000134694469646203922BFA0E80C50A0E8D6
:100570000C50B1F12001BFF4F7AF090728BFA0E884
:100580000C5048BF0CC05DF804EB890028BF40F850
:10059000042B08BF704748BF20F8022B11F0804F92
:1005A00018BF00F8012B70477047704770477047BD
:1005B00053EA020C00F069802DE9F04B4FF0000681
:1005C000002B1FBFB3FA83F503FA05F424FA05F6EE
:1005D0005E4012BF1643B2FA82F502FA05F4C5F185
:1005E00020051EBF22FA05FC44EA0C04203556EA19
:1005F000044C4FEA144418BF641C4FF000084FF03D
:100600000009904271EB030C39D3002919BFB1FAEC
:1006100081F701FA07F6B0FA80F700FA07F6C7F19A
:1006200020071EBF20FA07FC46EA0C062037B6FB5F
:10063000F4FCA7EB0507103F07F01F0BCBF12006DA
:100640000CFA0BFB2CFA06F644BFB3460026202F0B
:10065000A4BF5E464FF0000B5BEA060C08BF4FF0EC
:10066000010B19EB0B09ABFB027C48EB0608C01B26
:1006700006FB02CC0BFB03CC71EB0C01C1E70B4674
:10068000024641464846BDE8F08B13B54FF00000E6
:100690004FF00001AFF30080BDE81C40704710B57B
:1006A00000F0C8F8006810BD10B5044600F0C2F8AC
:1006B000046010BD2DE9F0470D4699469246044668
:1006C00000F124080168880604D5E06921F01001D2
:1006D000216000E00120A84201DD471B00E0002767
:1006E000A1697A1902EB0900081AA0612078C006F6
:1006F00002D42046AFF30080002608E0D4E90121AF
:100700001AF806009047206A401C761C20624E456D
:10071000F4DB2078C0060AD52046AFF3008006E05F
:10072000D4E9012130209047206A401C2062381E05
:10073000A7F10107F4DC07E0D4E9012118F805006E
:100740009047206A401C2062281EA5F10105F3DCB9
:100750002046AFF300802078000602D50220BDE8D5
:10076000F0870120FBE70000074B70B50D467B4486
:1007700000F069F80446284600F078F810B14FF010
:10078000FF3070BD204670BDE74D000010B5203A27
:10079000C0F00B80B1E81850203AA0E81850B1E83A
:1007A0001850A0E81850BFF4F5AF5FEA027C24BFF0
:1007B000B1E81850A0E8185044BF18C918C0BDE8E7
:1007C00010405FEA827C24BF51F8043B40F8043BB0
:1007D00008BF7047D20728BF31F8023B48BF11F865
:1007E000012B28BF20F8023B48BF00F8012B7047BF
:1007F0004FF000020429C0F0128010F0030C3FF407
:10080000AEAECCF1040CBCF1020F18BF00F8012B06
:10081000A8BF20F8022BA1EB0C01FFF7A0BE5FEAF6
:10082000C17C24BF00F8012B00F8012B48BF00F861
:10083000012B7047004870470C04002001694A1CD6
:1008400002610878704700B58FB0CDE90131002111
:10085000059105497944CDE9031011466846FFF733
:1008600067FD0FB000BD0000E5FFFFFF007B00F05B
:1008700080007047004870470C0400207546FFF761
:10088000F9FFAE4605006946534620F0070085464D
:1008900018B020B5FFF7CCFCBDE820404FF00006B3
:1008A0004FF000074FF000084FF0000B21F0070158
:1008B000AC46ACE8C009ACE8C009ACE8C009ACE89B
:1008C000C0098D4670470446AFF300802046FFF70D
:1008D0009BFC00BFFEE7704710B51BE013480068A3
:1008E000022803D0114800680A2807D1C8234FF412
:1008F0002F724FF41671084601F0B6FB0B480068E2
:10090000042807D14FF416731A46C8214FF42F70EC
:1009100001F0AAFB0648006820B10548001D0068E8
:100920000028DBD0012000F00FF910BD00000020EE
:100930000001224210B51BE013480068022803D0D2
:10094000114800680A2807D14FF42F73C8224FF4CA
:100950001671084601F088FB0B480068042807D18F
:100960004FF416731A464FF42F71C82001F07CFB28
:100970000648006820B10548001F00680028DBD049
:10098000022000F0E1F810BD000000200401224226
:1009900010B518E012480068012803D0104800681C
:1009A000052806D14FF49673C8229100184601F02D
:1009B0005BFB0B4800680A2805D1C8239A0019463A
:1009C000104601F051FB0748006820B10548083087
:1009D00000680028DED0082000F0B6F810BD000046
:1009E000000000200C01224210B51AE013480068F4
:1009F000012803D011480068052807D14FF49673E9
:100A00004FF44872C821184601F02EFB0B480068CD
:100A10000A2806D14FF44873C8221946104601F03F
:100A200023FB0748006820B1054808380068002803
:100A3000DCD0202000F088F810BD0000000000206D
:100A4000140122420EB50121084601F00DFA0521DC
:100A5000022000F0C9F82020019000208DF8080045
:100A600008208DF8090001208DF80A0001A800F087
:100A700071F80321022000F0B7F80820019000204F
:100A80008DF8080008208DF8090001208DF80A0073
:100A900001A800F05FF80021022000F0A5F8012075
:100AA000019000208DF8080008208DF80900012031
:100AB0008DF80A0001A800F04DF80121022000F095
:100AC00093F80220019000208DF8080008208DF88E
:100AD000090001208DF80A0001A800F03BF817205A
:100AE0008DF8000001208DF801008DF802008DF8CE
:100AF0000300684601F01CF809208DF80000012071
:100B00008DF801008DF802008DF80300684601F0B1
:100B10000FF806208DF8000001208DF801008DF8F7
:100B200002008DF80300684601F002F807208DF8F6
:100B3000000001208DF801008DF802008DF80300FF
:100B4000684600F0F5FF0EBD0149086070470000DF
:100B500014040140002123498279002A3AD00A4630
:100B6000126803689A430B461A600A1D12680368EC
:100B70009A430B1D1A60027911440A6803681A43EC
:100B80000A60184A0832126803689A43154B083302
:100B90001A601A1D126803689A43124B0C331A60CC
:100BA0004279102A0ED11A1F126803681A430D4B9E
:100BB00008331A601A1D126803681A43094B0C3374
:100BC0001A600DE00749427911440A6803681A4324
:100BD0000A6005E0027911440A6803689A430A60D2
:100BE000704700000004014030B500228B071C0F45
:100BF0000F2303FA04F20B4B8C1053F82430934369
:100C0000084C8D1044F8253023468C1053F82430BE
:100C10008C07240F00FA04F42343024C8D1044F88F
:100C2000253030BD080001402DE9F0410246002585
:100C30000026002000230024002791F803C00CF0B8
:100C40000F0591F803C00CF0100CBCF1000F03D09D
:100C500091F802C04CEA050591F800C0BCF1000F04
:100C600031D0146800202BE04FF0010C0CFA00F397
:100C7000B1F800C00CEA03069E4220D183004FF079
:100C80000F0C0CFA03F7BC4305FA03FC4CEA04040E
:100C900091F803C0BCF1280F06D14FF0010C0CFAFB
:100CA00000FCC2F814C00AE091F803C0BCF1480F80
:100CB00005D14FF0010C0CFA00FCC2F810C0401C2A
:100CC0000828D1D31460B1F800C0BCF1FF0F34DDA7
:100CD000546800202EE000F1080C4FF0010808FADB
:100CE0000CF3B1F800C00CEA03069E4221D1830048
:100CF0004FF00F0C0CFA03F7BC4305FA03FC4CEA67
:100D0000040491F803C0BCF1280F05D100F1080CD0
:100D100008FA0CF8C2F8148091F803C0BCF1480F2F
:100D200007D100F1080C4FF0010808FA0CF8C2F8DE
:100D30001080401C0828CED35460BDE8F08100002C
:100D4000F0B50A46002300240021002500F00046EB
:100D5000B6F1004F02D11D4EF16901E01B4E7168E2
:100D6000C0F3034583B200F44016B6F5401F08D126
:100D700021F07061154E766826F07066134F7E6024
:100D800012E000F48016B6F5801F06D1032606FA9D
:100D900005F4A14341F0706106E0460D360103FA07
:100DA00006F6B14341F0706122B1460D360103FAF7
:100DB00006F6314300F00046B6F1004F02D1034E73
:100DC000F16101E0014E7160F0BD000000000140E2
:100DD000016170474FF6FF7101800221817004218B
:100DE000C17070472DE9F04104460D4616461F4676
:100DF0000C4804F0BFFBC821484320600A4804F0B7
:100E0000B9FBC82148433060C80604F0B3FBC821D1
:100E100048432860054804F0ADFBC82148433860CA
:100E2000BDE8F08100080040000C004000340140A3
:100E300000BFFEE70A48006820F002000849086089
:100E40000846006820F0010008600846006820F0AD
:100E5000200008600846006820F00800086070471D
:100E60000004014008B501211C2000F0FDFF4FF4F3
:100E70007040ADF8000003208DF8020010208DF8BE
:100E8000030069460F48FFF7CFFE4FF49870ADF8A6
:100E9000000003208DF8020010208DF80300694641
:100EA0000948FFF7C1FE1020ADF8000003208DF8BF
:100EB000020010208DF8030069460448FFF7B4FED5
:100EC00008BD0000000C0140000801400010014076
:100ED00070B58AB007AA08A909A805F017F968BB78
:100EE00000F08AF81849088004AA05A906A800F0AD
:100EF00033F801AA02A903A800F056F813480068C5
:100F000007F0FEFB05461249079807F059FC064614
:100F1000294607F055FA044607F0B6FB00B20A4925
:100F200008800846B0F90000002808DA0846008862
:100F3000404200B2088001200649087002E0022009
:100F4000044908700AB070BD0C0000208C0000201D
:100F500000002041040000202DE9FC4104460D461C
:100F600016466B4606223B21682000F042FA0746EF
:100F7000BFB99DF801009DF8001040EA012000B2C1
:100F800020809DF803009DF8021040EA012000B285
:100F900028809DF805009DF8041040EA012000B269
:100FA00030803846BDE8FC812DE9FC4104460D4601
:100FB00016466B4606224321682000F01AFA0746BF
:100FC000BFB99DF801009DF8001040EA012000B271
:100FD00020809DF803009DF8021040EA012000B235
:100FE00028809DF805009DF8041040EA012000B219
:100FF00030803846BDE8FC812DE9F84F6B4602226F
:101000004121682000F0F5F99DF801009DF80010DD
:1010100040EA01200FFA80FA504606F0B3FE8046FF
:1010200000220B4B06F056FD06460A4A0A4B06F014
:10103000A1FC044606F06CFC83460849584607F0BC
:10104000BFFB044607F020FB00B2BDE8F88F0000AC
:1010500000407540A4703D0AD74342400000C8429A
:1010600010B500200E4908600E48006820F470405A
:101070000C4908600846006840F4405008600020B1
:101080000949C1F8AC0100F011F8012004490860D9
:1010900000F00CF800200449C1F8A80110BD0000C0
:1010A000A8812142040C01400080214210B5052096
:1010B00003F0F4FB10BD000008B50121082000F08A
:1010C000D3FE4FF44060ADF8000010208DF803000F
:1010D00003208DF8020069460448FFF7A5FD4FF490
:1010E00040610248FFF774FE08BD0000000C01409B
:1010F00010B500200E4908600E48006820F47040CA
:101100000C4908600846006840F44050086001201F
:101110000949C1F8AC01FFF7C9FF01200449086083
:10112000FFF7C4FF00200449C1F8A80110BD00006A
:10113000A8812142040C01400080214270B505467F
:1011400000241648006820F47040144908600846DE
:10115000006840F400400860002614E000201049B8
:101160000860FFF7A3FF01200E49C1F8A80160063F
:10117000040E0B487C38006808B1601CC4B2FFF74D
:1011800095FF701CC6B2082EE8DB15B9FFF7B0FF5B
:1011900001E0FFF765FF204670BD0000040C014030
:1011A000A88121420080214270B50446124800689F
:1011B00020F47040104908600846006840F4405030
:1011C000086000200D490860002512E0E0090B4985
:1011D000091D08606006040E01200949C1F8A80134
:1011E000FFF764FF002005490860FFF75FFF681CF8
:1011F000C5B2082DEADB70BD040C0140A881214274
:101200000080214210B50E48006820F470400C495F
:1012100008600846006840F4405008600120094911
:1012200008600949C1F8A801FFF740FF00200549FF
:101230000860FFF73BFF00200349C1F8A80110BD7B
:10124000040C0140AC8121420080214210B50E48BF
:10125000006820F470400C4908600846006840F4BB
:10126000405008600020094908600949C1F8AC01F4
:10127000FFF71CFF0120054908600549C1F8AC01D2
:10128000FFF714FF10BD0000040C0140A8812142AB
:101290000080214210B500241448006820F47040FA
:1012A000124908600846006840F4004008600120C8
:1012B0000F490860FFF7FAFE01200E49C1F8A801A6
:1012C000FFF7F4FE07E0601CC4B2FA2C03DDFFF761
:1012D000BDFF012010BD0648803800680028F2D10B
:1012E0000349091F086000BFF4E70000040C014037
:1012F000AC8121420080214238B50121084600F02E
:10130000B3FD0121042000F0AFFD4FF40040ADF823
:10131000000010208DF8030003208DF802006946BC
:101320002248FFF781FC01212148FFF709FD002039
:1013300020490860FFF7C0FE80216B2000F0DDF837
:10134000642003F06DFA00216B2000F0D6F8032032
:1013500000F091F8002000F086F8322000F0B0F89C
:101360000021382000F0C9F800216A2000F0C5F8FB
:101370000021232000F0C1F88021372000F0BDF8C3
:10138000752000F019F80446682C0BD101216B2060
:1013900000F0B3F800216C2000F0AFF8322000F02C
:1013A0008FF801E0012038BD0020FCE70008014073
:1013B00000023000BC01214270B50446FFF722FF55
:1013C000D020FFF7F1FEFFF765FF2046FFF7ECFEA8
:1013D000FFF760FFFFF716FFD120FFF7E5FEFFF7ED
:1013E00059FF0020FFF7AAFE0546FFF72FFF28460A
:1013F00070BD2DE9F04106460F4614461D46FFF725
:1014000001FF002141EA4601C8B2FFF7CDFEFFF718
:1014100041FF20B1FFF71AFF0120BDE8F0813846F7
:10142000FFF7C2FEFFF736FFFFF7ECFE012101EBED
:101430004601C8B2FFF7B8FEFFF72CFF0DE0012C04
:1014400004D10020FFF77AFE287003E00120FFF7A7
:1014500075FE2870601EC4B26D1C002CEFD1FFF722
:10146000F5FE0020D9E710B50446E006010E1C2069
:1014700000F043F810BD10B50446E006010E1B2035
:1014800000F03BF810BD70B504460025BC2C01DB14
:10149000012510E0622C01DB02250CE02A2C01DB87
:1014A000032508E0142C01DB042504E00A2C01DBF1
:1014B000052500E0062529461A2000F01EF870BD1B
:1014C00070B50446B4F57A7F01DD4FF47A74042CCC
:1014D00000DA04244FF47A7090FBF4F0401EC5B299
:1014E0002946192000F009F80546264604EBD67176
:1014F000C1F34F00FFF7C7FF70BD70B505460C463E
:10150000FFF780FED020FFF74FFEFFF7C3FE18B1B4
:10151000FFF79CFE012070BD2846FFF745FEFFF750
:10152000B9FE2046FFF740FEFFF7B4FE18B1FFF703
:101530008DFE0120EFE7FFF789FE0020EBE72DE9A4
:10154000F04105460E4617469846FFF75BFE002120
:1015500041EA4501C8B2FFF727FEFFF79BFE20B125
:10156000FFF774FE0120BDE8F0813046FFF71CFE56
:10157000FFF790FE00240CE018F80400FFF714FEBB
:10158000FFF788FE18B1FFF761FE0120EBE7601C52
:10159000C4B2BC42F0DBFFF759FE0020E3E700BF16
:1015A000FEE7000010B54FF4FA60154908601549D0
:1015B000086015490860154908604FF416731A460B
:1015C0001946184600F050FD01201149086000201E
:1015D0001049C1F8940101200D4910310860002024
:1015E0000D4908600D49086001200C490831086068
:1015F000091F086000200A49C1F8BC0110BD0000A5
:101600006C00002070000020740000207800002092
:10161000900121420000214290012242B0812142EA
:101620000080214210B53D48006808B9012000E063
:1016300000203A4908603A48D0F8940108B90120DE
:1016400000E000203549091D08603548D0F8A001A8
:1016500008B9012000E0002030491031086031480D
:10166000D0F8900108B9012000E000202E49086060
:101670002E48D0F8B00108B9012000E000202C4924
:1016800008602A48D0F8B80108B9012000E000201D
:101690002749083108602548D0F8B40108B901206D
:1016A00000E000202249091D08602048D0F8BC0154
:1016B00008B9012000E000201D490C3108604FF4FA
:1016C00096731A461946184600F0CEFC322003F0F5
:1016D000A7F800231A461946184600F0C5FC00205A
:1016E0000F49C1F890010D49091D08600B491031DF
:1016F00008600D4908600E4908600D49083108600E
:10170000091F08600A490C3108600A4908600A4943
:1017100008600A4908600A49086010BD900121422A
:10172000000021420000224290012242008021421A
:10173000B08121426C000020700000207400002065
:101740007800002010B54FF4FA601549086015497B
:10175000086015490860154908604FF416731A4669
:101760001946184600F080FC00201149086001204D
:101770001049C1F8940100200D4910310860012082
:101780000D4908600D49086000200C4908310860C7
:10179000091F086001200A49C1F8BC0110BD000002
:1017A0006C000020700000207400002078000020F1
:1017B000900121420000214290012242B081214249
:1017C000008021424FF4FA60114908601149086015
:1017D0001149086011490860002011490860012082
:1017E0001049C1F894010E491031086000200E49DB
:1017F00008600E49086001200C490831086000208B
:10180000091F086001200A49C1F8BC0170470000A7
:101810006C00002070000020740000207800002080
:10182000900121420000214290012242B0812142D8
:101830000080214210B54FF448731A464FF44D71A1
:10184000184600F011FC4FF4FA6011490860114984
:1018500008601149086011490860012010490860BA
:1018600000201049C1F894010D4910310860012091
:101870000D4908600D49086000200C4908310860D6
:101880000120091F086000200949C1F8BC0110BDF2
:101890006C00002070000020740000207800002000
:1018A000900121420000214290012242B081214258
:1018B0000080214210B5C8231A461946184600F088
:1018C000D3FB00200D49086001200D49C1F89401A7
:1018D00000200A491031086001200A4908600020F0
:1018E000094908600120084908310860091F08609B
:1018F00000200649C1F8BC0110BD00009001214242
:101900000000214290012242B08121420080214208
:1019100010B5C8231A461946184600F0A5FB012049
:101920000D49086000200D49C1F8940101200A49C1
:101930001031086000200A49086001200949086048
:101940000020084908310860091F08600120064985
:10195000C1F8BC0110BD00009001214200002142ED
:1019600090012242B08121420080214270B505469B
:101970000C46012D06D0022D37D0032D62D0042D48
:1019800032D192E001206049086000205F49C1F82F
:10199000940101205C491031086000205C49086016
:1019A0005C49086001205B4908310860091F086034
:1019B000002058490C3108604FF4FA60564908601D
:1019C000564908604FF44871012001F099FEA1B218
:1019D000022001F095FE4FF44871032001F090FEC3
:1019E000A1B2042001F08CFE8BE001204649086082
:1019F00000204649C1F89401012043491031086094
:101A000000204349086043490860012041490831EA
:101A10000860091F086000204149C1F8BC01A1B25B
:101A2000012001F06DFE4FF44871022001F068FEC4
:101A3000A1B2032001F064FE4FF44871042001F0CC
:101A40005FFE5EE000203049086001202F49C1F8A8
:101A5000940100202C491031086001202C490860B5
:101A60002C49086000202B4908310860091F0860D4
:101A7000012028490C3108604FF4FA6029490860B8
:101A800029490860A1B2012001F03AFE4FF44871E3
:101A9000022001F035FEA1B2032001F031FE4FF427
:101AA0004871042001F02CFE2BE00020164908604C
:101AB00001201649C1F89401002013491031086033
:101AC00001201349086013490860002011490831BA
:101AD0000860091F086001201149C1F8BC014FF4DA
:101AE000487101F00DFEA1B2022001F009FE4FF491
:101AF0004871032001F004FEA1B2042001F000FEB1
:101B000000BF00BF70BD00009001214200002142D3
:101B100090012242B08121426C0000207000002020
:101B200000802142740000207800002070470000EF
:101B300070B5002100230F22C47804B3154C24682B
:101B400004F4E064C4F5E064210AC1F10403CA406E
:101B5000447804FA03F184781440214309010E4CBF
:101B60000678A155047804F01F050124AC400578DF
:101B70006D11AD0005F1E025C5F8004109E00478DC
:101B800004F01F050124AC40044D0678761145F899
:101B9000264070BD0CED00E000E400E080E100E0D4
:101BA00002490143024A1160704700000000FA0533
:101BB0000CED00E000B540F2331029490861002027
:101BC00048611E2088614FF44840C8600020C883E7
:101BD00001200877002008844884084605F0CAFCE4
:101BE00040F233101F490861002048611E208861BF
:101BF0004FF44840C8600020C883012008770020C7
:101C000008844884084605F0B5FC40F233101649B4
:101C10000861002048611E2088614FF44840C86078
:101C20000020C883012008770020088448840846E3
:101C300005F0A0FC40F233100C4908610020486117
:101C40001E2088614FF44840C8600020C8830120EE
:101C50000877002008844884084605F08BFC00BD06
:101C6000EC01002010020020340200205802002065
:101C7000F0B504460D4600210023291BD2E90007D8
:101C8000CF1B166906FB0700566906FB01000227F9
:101C9000566807FB161697683E44976907FB0603CC
:101CA0001360506890605160D068984200DAD36841
:101CB000D0684042984201DDD06843429812F0BD9E
:101CC00070470000F0B507460C4615461E460F4B00
:101CD0000F4A1049104800F021F80F49B1F91E10C1
:101CE0003868084438600B49B1F91E102068084470
:101CF00020600749B1F91E1028680844286003498C
:101D0000B1F91E10306808443060F0BD5802002060
:101D10003402002010020020EC010020F0B506463D
:101D20000C4617461D46307F01280AD1B6F922100D
:101D3000B6F920003246FFF79BFF404200B2F08325
:101D400006E00020F083304605F014FC02203077D6
:101D5000207F01280AD1B4F92210B4F920002246CC
:101D6000FFF786FF404200B2E08306E00020E083F8
:101D7000204605F0FFFB02202077387F01280AD19A
:101D8000B7F92210B7F920003A46FFF771FF404239
:101D900000B2F88306E00020F883384605F0EAFB3D
:101DA00002203877287F01280AD1B5F92210B5F929
:101DB00020002A46FFF75CFF404200B2E88306E0BD
:101DC0000020E883284605F0D5FB02202877F0BDE7
:101DD00008B50121042000F047F80121082000F097
:101DE00043F80121022000F01FF803208DF80200C3
:101DF00018208DF80300C020ADF80000694608489F
:101E0000FEF712FF03208DF8020018208DF8030062
:101E10000320ADF8000069460248FEF705FF08BD43
:101E200000080140000C014029B1064AD269024372
:101E3000044BDA6104E0034AD2698243014BDA6160
:101E4000704700000010024029B1064A126902439F
:101E5000044B1A6104E0034A12698243014B1A6180
:101E6000704700000010024029B1064A92690243FF
:101E7000044B9A6104E0034A92698243014B9A61E0
:101E8000704700000010024029B1064AD2680243A0
:101E9000044BDA6004E0034AD2688243014BDA6003
:101EA000704700000010024030B5002100220024DD
:101EB00000232D4D6D6805F00C0121B1042905D0DA
:101EC000082923D105E0294D056022E0274D056052
:101ED0001FE0254D6D6805F47012234D6D6805F403
:101EE0008034022505EB92421CB9214D5543056013
:101EF0000BE01D4D6D6805F400351DB11C4D5543BB
:101F0000056002E0194D5543056002E0174D05607C
:101F100000BF00BF144D6D6805F0F0010909154DB3
:101F20006B5C0568DD4045600F4D6D6805F4E06150
:101F3000090A104D6B5C4568DD4085600A4D6D688F
:101F400005F46051C90A0B4D6B5C4568DD40C56006
:101F5000054D6D6805F44041890B074D6B5CC56804
:101F6000B5FBF3F5056130BD0010024000127A00A8
:101F700000093D003601002046010020704710B5E1
:101F800000F002F810BD00000CB500200190009098
:101F90003348006840F480303149086000BF304861
:101FA000006800F4003000900198401C01900098F7
:101FB00018B90198B0F5A06FF1D12948006800F474
:101FC000003010B10120009001E000200090009846
:101FD000012843D12348006840F0100021490860DF
:101FE0000846006820F0030008600846006840F0DA
:101FF000020008601A48406819494860084640686D
:1020000048600846406840F4806048600846406880
:1020100020F47C1048600846406840F4E8104860AE
:102020000846006840F08070086000BF0C480068F7
:1020300000F000700028F9D00948406820F0030043
:10204000074948600846406840F00200486000BF09
:102050000348406800F00C000828F9D10CBD0000CE
:1020600000100240002002402DE9F04107460C46D6
:1020700015461E46384605F065F91FFA80F84146B8
:10208000012001F03DFB204605F05CF91FFA80F8C5
:102090004146022001F034FB284605F053F91FFAAF
:1020A00080F84146032001F02BFB304605F04AF949
:1020B0001FFA80F84146042001F022FBBDE8F081C0
:1020C000042808D14FF0E021096941F004014FF0E4
:1020D000E022116107E04FF0E021096921F00401DD
:1020E0004FF0E022116170477047000010B51348AF
:1020F000006840F001001149086008464068104936
:1021000008400E494860084600680E4908400B49DF
:1021100008600846006820F480200860084640688F
:1021200020F4FE0048604FF41F008860FFF727FF8F
:102130004FF000600449086010BD0000001002402C
:102140000000FFF8FFFFF6FE08ED00E0F0B50C46DA
:10215000154600220021068C4FF6FE773E4006848D
:10216000028B018C4FF60C7632407E1C06EA031679
:102170002E433243104EB0420ED0104EB0420BD020
:10218000B0F1804F08D00E4EB04205D00D4EB04297
:1021900002D00D4EB04206D14FF6FD76314044F0EC
:1021A0000106314305E04FF6F576314044F0010673
:1021B000314302830184F0BD002C01400034014012
:1021C0000004004000080040000C0040F0B50C4640
:1021D0001546002200210026078C4FF6EF7C07EA07
:1021E0000C070784028B018C4FF6FF7707EA041671
:1021F00040F6FF473A404FF6FF7707EA03373A4386
:102200004FF6FF7707EA05273A43114FB8420ED041
:10221000104FB8420BD0B0F1804F08D00E4FB842EB
:1022200005D00E4FB84202D00D4FB84206D14FF63E
:10223000DF77394046F01007394305E04FF65F7706
:10224000394044F01007394302830184F0BD000097
:10225000002C014000340140000400400008004010
:10226000000C0040F0B50C46154600220021002667
:10227000078C4FF6FF6C07EA0C070784828B018CF2
:102280004FF6FF7707EA04264FF60C773A404FF6F1
:10229000FF7707EA03172F433A43114FB8420ED096
:1022A000104FB8420BD0B0F1804F08D00E4FB8425B
:1022B00005D00E4FB84202D00D4FB84206D14FF6AE
:1022C000FF57394046F48077394305E04FF2FF5716
:1022D000394044F48077394382830184F0BD0000A3
:1022E000002C014000340140000400400008004080
:1022F000000C0040F0B50C461546002200210026D7
:10230000078C4EF6FF7C07EA0C070784828B018C52
:102310004FF6FF7707EA043640F6FF473A404FF69C
:10232000FF7707EA05273A434FF6FF7707EA0337B7
:102330003A43114FB8420ED0104FB8420BD0B0F113
:10234000804F08D00E4FB84205D00E4FB84202D091
:102350000D4FB84206D14DF6FF77394046F480570D
:10236000394305E047F6FF57394044F48057394375
:1023700082830184F0BD0000002C01400034014044
:102380000004004000080040000C004000B587B089
:1023900001210846FFF748FD01210D20FFF764FDEC
:1023A00001212B48FEF7CCFC4FF40040ADF80000B3
:1023B00004208DF8030069462648FEF735FC082006
:1023C000ADF8000004208DF8030069462248FEF7AE
:1023D0002BFC04A800F02CFE0020ADF810004FF6F6
:1023E000FF70ADF814000020ADF81600ADF8120033
:1023F00004A94FF0804000F0C9FD00231A460321D4
:102400004FF0804000F096FB01A800F01BFC0A2072
:10241000ADF80C0001A9400700F0BEFB01218807C0
:1024200000F082FA01221146900700F014FC00210E
:102430004FF0804000F07CFD47F6FF704FF0804188
:1024400088840121880700F075FA07B000BD0000FC
:102450000001180000080140000C014030B587B0B1
:1024600005460C4601212C48FEF76AFC0020ADF819
:102470001600ADF81450ADF81200ADF8104004A9E4
:10248000264800F083FD7020ADF800000220ADF872
:1024900008000120ADF802000020ADF806006946F2
:1024A0001E4800F0E1FB08211C4800F029FC012037
:1024B000ADF802000020ADF806006946174800F0AC
:1024C00029FC0821154800F077FC0120ADF8020036
:1024D0000020ADF806006946104800F07BFC08219A
:1024E0000E4800F0C7FC0120ADF802000020ADF856
:1024F00006006946094800F0C7FC0821074800F0BB
:1025000001FD0121054800F003FA0121034800F014
:1025100011FA07B030BD000000081A0000040040A6
:1025200000B587B001210420FFF77EFC01210820BF
:10253000FFF79AFCC020ADF8000004208DF80300DE
:1025400069461F48FEF770FB04A800F071FD0020EB
:10255000ADF810004FF6FF70ADF814000020ADF894
:102560001600ADF8120004A9164800F00FFD002374
:102570001A460321134800F0DDFA01A800F062FBBF
:102580000A20ADF80C0001A90E4800F005FB01215E
:102590000C4800F0C9F9012211460A4800F05BFB23
:1025A0000021084800F0C4FC47F6FF7005492431BB
:1025B00008800121034800F0BDF907B000BD00000C
:1025C000000C01400008004000B587B00121082040
:1025D000FFF72AFC01210820FFF746FC06A8FEF7BA
:1025E000F9FB0320ADF8180004208DF81B00032030
:1025F0008DF81A0006A92048FEF716FB1F4800F0C8
:10260000A5F903A800F014FD4FF6FF70ADF8100017
:102610000020ADF80C00ADF81200ADF80E0003A9D3
:10262000164800F0B3FC00231A460321134800F0BB
:1026300081FA684600F006FB0A20ADF808006946FA
:102640000E4800F0A9FA01210C4800F06DF90122B2
:1026500011460A4800F0FFFA0021084800F068FC23
:1026600047F6FF700549243108800121034800F036
:1026700061F907B000BD000000080140000C0040F7
:102680002DE9F0470121244800F075FA002840D0D8
:1026900022A0FDF705FE244802782448B0F9001076
:1026A00023A0FDF7FDFDFEF713FC2048B0F9000064
:1026B0000A2190FBF1F02749274A128821F81200DD
:1026C00025480088401C2449088022490988214A5D
:1026D000528811441F4A9288881805F053FB064619
:1026E00000221E4B05F066FB044600221C4B05F041
:1026F000F1F9804605F00CF91A490860164800887F
:10270000032802DB0020144908800121024800F060
:102710000EF9BDE8F087000000100040434C53283C
:1027200030290D0A00000000580000200C00002095
:10273000445334382834322C38302C27726F773A8F
:1027400025642C7278343A2564272C31362C3029B4
:102750003B0D0A004C0100200A0000200000F03F61
:1027600000000840180000207FB505460C460121F6
:102770001020FFF759FB0020ADF80A00ADF8060065
:10278000ADF80850ADF8044001A90D4800F0FEFB7B
:10279000012211460A4800F05EFA36208DF800004A
:1027A00000208DF801008DF8020001208DF8030053
:1027B0006846FFF7BDF90121014800F0BBF87FBD75
:1027C0000010004010B50121074800F0D4F948B1CD
:1027D0000121054800F0ABF8044B054A05490648BD
:1027E000FEF700FB10BD0000001400406800002050
:1027F00064000020600000205C0000207FB50546DA
:102800000C4601212020FFF70FFB0020ADF80A0045
:10281000ADF80600ADF80850ADF8044001A90D4828
:1028200000F0B4FB012211460A4800F014FA3720E8
:102830008DF8000002208DF801008DF802000120C3
:102840008DF803006846FFF773F90121014800F095
:1028500071F87FBD0014004000B587B00121480326
:10286000FFF702FB01211020FFF7FEFA06A8FEF792
:10287000B1FAC020ADF8180004208DF81B00032029
:102880008DF81A0006A92048FEF7CEF91F4800F07F
:102890005DF803A800F0CCFB4FF6FF70ADF8100018
:1028A0000020ADF80C00ADF81200ADF80E0003A941
:1028B000164800F06BFB00231A460321134800F072
:1028C00039F9684600F0BEF90A20ADF808006946FB
:1028D0000E4800F061F901210C4800F025F80122B2
:1028E00011460A4800F0B7F90021084800F020FB23
:1028F00047F6FF700549243108800121034800F0A4
:1029000019F807B000BD000000100140003401407C
:1029100021B1028842F08002028004E002884FF672
:102920007F731A4002807047CA4302827047CA43CD
:102930000282704721B1028842F00102028004E065
:1029400002884FF6FE731A400280704710B50446A5
:102950006848844208D10121C014FFF795FA00218C
:10296000E014FFF791FAC4E0B4F1804F08D10121DF
:102970000846FFF769FA00210120FFF765FAB8E081
:102980005D48844208D101210220FFF75DFA002151
:102990000220FFF759FAACE05848844208D10121DF
:1029A0000420FFF751FA00210420FFF74DFAA0E0C0
:1029B0005348844208D101210820FFF745FA00213D
:1029C0000820FFF741FA94E04E48844208D10121E3
:1029D0001020FFF739FA00211020FFF735FA88E0C0
:1029E0004948844208D101212020FFF72DFA002117
:1029F0002020FFF729FA7CE04448844208D10121D5
:102A00004014FFF741FA00216014FFF73DFA70E02F
:102A10003F48844209D10121C804FFF735FA00215B
:102A20004FF40020FFF730FA63E03A48844209D1BE
:102A300001210805FFF728FA00214FF48010FFF765
:102A400023FA56E03448844209D101214805FFF7B2
:102A50001BFA00214FF40010FFF716FA49E02F4847
:102A6000844208D101214020FFF7EEF900214020E7
:102A7000FFF7EAF93DE02A48844208D1012180208D
:102A8000FFF7E2F900218020FFF7DEF931E0254869
:102A9000844208D101218015FFF7D6F90021A01545
:102AA000FFF7D2F925E02048844209D1012108042A
:102AB000FFF7EAF900214FF48030FFF7E5F918E05D
:102AC0001A48844209D101214804FFF7DDF90021A9
:102AD0004FF40030FFF7D8F90BE01548844208D1D5
:102AE00001218804FFF7D0F900214FF48020FFF77F
:102AF000CBF910BD002C014000040040000800404C
:102B0000000C004000100040001400400034014060
:102B1000004C0140005001400054014000180040AA
:102B2000001C0040002000400040014000440140E3
:102B300000480140F0B50C4615461E460021002213
:102B400000230189028B038C4FF6F877394021432B
:102B50004FF6FC473A4040F201173A434FF6DD7713
:102B60003B404FF6FF7707EA06172F433B430181AF
:102B700002830384F0BD30B5024600200023002408
:102B8000158A05EA0103958905EA010413B10CB120
:102B9000012000E0002030BD70B505460C462448F9
:102BA00085420ED0234885420BD0B5F1804F08D026
:102BB0002148854205D02148854202D020488542DF
:102BC00000D100E000BF208850B92389A288618825
:102BD0002846FFF7BBFAE188284600F0ABF925E06C
:102BE000208804280AD12389A28861882846FFF713
:102BF000EDFAE188284600F0A6F917E020880828B9
:102C00000AD12389A28861882846FFF72BFBE18837
:102C1000284600F0A5F909E02389A28861882846A2
:102C2000FFF768FBE188284600F0A3F970BD0000BB
:102C3000002C014000340140000400400008004026
:102C4000000C004000210180418001218180002191
:102C5000C180018170471AB183890B43838102E0EF
:102C600083898B438381704770B500240022002341
:102C7000058C4FF6FE7635400584028C8388048BE4
:102C80004FF68F752C40B51E2C400D882C43751EB9
:102C90002A400D892A434D882A43144DA8420BD05F
:102CA000134DA84208D0134DA84205D0124DA8429A
:102CB00002D0124DA84213D14FF6F7752A404D8924
:102CC0002A434FF6FB752A408D882A434FF6FF654D
:102CD0002B404FF6FF552B408D892B43CD892B433D
:102CE00083800483CD888586028470BD002C0140DA
:102CF00000340140004001400044014000480140D0
:102D00000A460021018B4FF6F773194011430183E6
:102D10007047000070B5002400220023058C4FF698
:102D2000EF7635400584028C8388048B48F6FF7566
:102D30002C404FF6FF452C400D884FF6FF7606EAF3
:102D400005252C434FF6DF752A400D8906EA051547
:102D50002A434D8806EA05152A43154DA84202D09C
:102D6000144DA8421DD14FF67F752A404D894FF66C
:102D7000FF7606EA05152A434FF6BF752A408D886F
:102D800006EA05152A434FF6FF352B404FF2FF7533
:102D90002B408D8906EA85052B43CD8906EA8505FA
:102DA0002B4383800483CD880587028470BD000097
:102DB000002C0140003401400A460021018B4FF2F3
:102DC000FF7319404FF6FF7303EA0223194301838F
:102DD0007047000070B5002400220023058C4FF6D8
:102DE000FF6635400584028C8388848B4FF68F758F
:102DF0002C404FF6FC752C400D882C434FF6FF55A8
:102E00002A400D894FF6FF7606EA05252A434D88AC
:102E100006EA05252A43154DA84202D0144DA842C2
:102E20001DD14FF2FF752A404D894FF6FF7606EA15
:102E300005252A434FF6FF352A408D8806EA0525E9
:102E40002A434EF6FF752B404DF6FF752B408D89BA
:102E500006EA05152B43CD8906EA05152B43838029
:102E60008483CD888587028470BD0000002C0140DA
:102E7000003401400A460021818B4FF6F773194058
:102E8000114381837047000070B5002200230024A5
:102E9000058C4EF6FF7635400584038C8488828B42
:102EA00048F6FF752A404FF6FF452A400D884FF639
:102EB000FF7606EA05252A434DF6FF752B400D895E
:102EC00006EA05352B434D8806EA05352B430B4DA5
:102ED000A84202D00A4DA84208D14BF6FF752C40FB
:102EE0008D894FF6FF7606EA85152C438480828310
:102EF000CD88A0F84050038470BD0000002C014034
:102F0000003401400A460021818B4FF2FF731940C3
:102F10004FF6FF7303EA02231943818370478186CA
:102F200070470187704781877047A0F8401070474D
:102F300081847047028B4FF6F3731A400283028B31
:102F40000A4302837047028B4FF2FF331A40028319
:102F5000028B4FF6FF7303EA01231A430283704783
:102F6000828B4FF6F3731A408283828B0A438283EB
:102F70007047828B4FF2FF331A408283828B4FF669
:102F8000FF7303EA01231A438283704700220288F9
:102F90001D4B98420ED01D4B98420BD0B0F1804F84
:102FA00008D01B4B984205D01A4B984202D01A4BBE
:102FB000984204D14FF68F731A404B881A43174B2F
:102FC000984207D0164B984204D04FF6FF431A4060
:102FD000CB881A4302808B8883850B8803850A4B34
:102FE00098420BD0094B984208D00E4B984205D01E
:102FF0000D4B984202D00D4B984201D10B7A0386BB
:103000000123838270470000002C014000340140FE
:103010000004004000080040000C00400010004088
:1030200000140040004001400044014000480140BD
:103030004FF6FF71818000210180C18041800172C3
:103040007047000001B586B00698092867D2DFE80E
:1030500000F0660567C9FCFBFAF9F800FE48007845
:1030600001282CD1FD49FE48006805F0A9FB02901B
:10307000FC48006805F044FB0190029905F0A8FCAB
:10308000039005F001FBF5490590F548006805F04F
:1030900097FB0290F448006805F032FB019002991A
:1030A00005F08EF9039005F0EFFA0490EF480368FD
:1030B000EF480268DDE90401FEF7D6FF2FE0E6489D
:1030C000007802282BD1E549E548006805F078FB37
:1030D0000290E448006805F013FB0190029905F0A6
:1030E0006FF9039005F0D0FADC490590DC480068E0
:1030F00005F066FB0290DC48006805F001FB0190DA
:10310000029905F065FC039005F0BEFA0490D748DB
:103110000368D7480268DDE90401FEF7A5FFA0E2D5
:10312000CD48007801282CD1CC49CD48006805F065
:1031300047FB0290CD48006805F0E2FA0190029941
:1031400005F03EF9039005F09FFAC4490590C44884
:10315000006805F035FB0290C548006805F0D0FA1C
:103160000190029905F034FC039005F08DFA04906B
:103170000246BC48059B0168BB480068FEF774FF27
:103180002FE0B548007802282BD1B449B448006834
:1031900005F016FB0290B548006805F0B1FA019001
:1031A000029905F015FC039005F06EFAAB49059005
:1031B000AB48006805F004FB0290AD48006805F0DC
:1031C0009FFA0190029905F0FBF8039005F05CFA74
:1031D00004900246A348059B0168A3480068FEF7D7
:1031E00043FF3EE29C480078012832D1A1499C4827
:1031F000006805F0E5FA02909C48006805F080FA46
:103200000190029905F0E4FB039005F03DFA99491D
:1032100005909348006805F0D3FA0290944800683E
:1032200005F06EFA0190029905F0CAF8039005F0D6
:103230002BFA049002468B48059B01688A48006877
:1032400004E0BCE15DE1F3E096E033E0FEF70CFF63
:103250002FE08148007802282BD1864980480068F9
:1032600005F0AEFA02908148006805F049FA019035
:10327000029905F0A5F8039005F006FA7D4905903E
:103280007748006805F09CFA02907948006805F0DC
:1032900037FA0190029905F09BFB039005F0F4F9D1
:1032A000049002466F48059B01686F480068FEF76E
:1032B000DBFED6E16848007801282CD16D496848CA
:1032C000006805F07DFA02906648006805F018FA7B
:1032D0000190029905F074F8039005F0D5F965495D
:1032E00005905F48006805F06BFA02905E48006840
:1032F00005F006FA0190029905F06AFB039005F0CB
:10330000C3F904905948036859480268DDE904018B
:10331000FEF7AAFE2FE05048007802282BD155492D
:103320004F48006805F04CFA02904E48006805F0DE
:10333000E7F90190029905F04BFB039005F0A4F921
:103340004C4905904648006805F03AFA0290464814
:10335000006805F0D5F90190029905F031F8039065
:1033600005F092F904904148036841480268DDE99C
:103370000401FEF779FE74E137480078012829D16D
:103380003D493748006805F01BFA0290384800684C
:1033900005F0B6F90190029905F012F8039005F0D6
:1033A00073F9354905902E48006805F009FA029036
:1033B0002D48006805F0A4F90190029905F008FB7A
:1033C000039005F061F9002304901946059AFEF771
:1033D0004BFE2CE020480078022828D126492048BE
:1033E000006805F0EDF902902148006805F088F9C1
:1033F0000190029905F0ECFA039005F045F91E4999
:1034000005901748006805F0DBF90290164800683F
:1034100005F076F90190029904F0D2FF039005F0CF
:1034200033F9002304901946059AFEF71DFE18E1B2
:103430000948007801283BD110490948006805F087
:10344000BFF90F49039005F0B8FA049005F038F978
:1034500080B20146059015E00400002000008C4277
:1034600018000020800000207C0000208800002040
:10347000840000200000C842000048420000F041E3
:1034800000004844022000F03BF977497748006883
:1034900005F096F97649039004F092FF049005F048
:1034A0000FF980B201460590042000F029F927E0C9
:1034B00070480078022823D16B496C48006805F0F9
:1034C0007FF96B49039004F07BFF049005F0F8F856
:1034D00080B201460590022000F012F9624963486B
:1034E000006805F06DF96249039005F066FA0490F2
:1034F00005F0E6F880B201460590042000F000F9DE
:10350000AFE05C48007801282AD15B495748006841
:1035100005F056F902905948006805F0F1F801905D
:10352000029904F04DFF039005F0AEF85249059062
:103530004E48006805F044F902905148006805F0D3
:10354000DFF80190029905F043FA039005F09CF82A
:103550000490002201461046059BFEF785FD2DE0F4
:1035600044480078022829D143494048006805F0C2
:1035700027F902904148006805F0C2F801900299CD
:1035800005F026FA039005F07FF83B49059037488F
:10359000006805F015F902903948006805F0B0F8A8
:1035A0000190029904F00CFF039005F06DF804906F
:1035B000002201461046059BFEF756FD51E02D48BE
:1035C0000078012824D128492848006805F0F8F837
:1035D0002749039004F0F4FE049005F071F880B2DE
:1035E00001460590012000F08BF81F491F48006834
:1035F00005F0E6F81E49039005F0DFF9049005F0A8
:103600005FF880B201460590032000F079F827E0CA
:1036100018480078022823D113491448006805F09F
:10362000CFF81349039005F0C8F9049005F048F865
:1036300080B201460590012000F062F80A490B486B
:10364000006805F0BDF80A49039004F0B9FE049043
:1036500005F036F880B201460590032000F050F8DE
:1036600000BF00BF07B000BD0000F04118000020FF
:103670000000484404000020000048428800002068
:103680008000002010B51D480068012803D01B48A9
:103690000068052802D10120FFF7D4FC1748006814
:1036A0000A2802D10220FFF7CDFC14480068022846
:1036B00002D10320FFF7C6FC10480068042801D19E
:1036C000FFF7C0FC0D480068032802D10520FFF772
:1036D000B9FC0A4800680A2802D10620FFF7B2FCAC
:1036E0000648006810B90720FFF7ACFC03480068E3
:1036F0000A2802D10820FFF7A5FC10BD0000002019
:1037000070B504460D46012C0BD0022C04D0032CBE
:103710000CD0042C14D10EE029460A48FFF7FFFB19
:103720000EE029460748FFF7FCFB09E0294605485B
:10373000FFF7F9FB04E029460248FFF7F6FB00BF5C
:1037400000BF70BD0004004010B504462146054886
:1037500000F0B5FA00BF8021024800F0E3F900282C
:10376000F9D010BD0044004010B50446214605487C
:1037700000F0A5FA00BF4021024800F0D3F900286C
:10378000F9D010BD004C004070B540F225514148C1
:1037900000F0D5F900287BD040F225513D4800F0DB
:1037A00058F93C4800F086FAC4B2392C03D1002005
:1037B000394908706CE0382C6AD138480078401CD0
:1037C000364908703448007800BB0020344908604E
:1037D00017E03449324A126851F8220003F08AFD9A
:1037E00005462878FFF7C0FF322001F019F82E486F
:1037F0000068401C2C49086029480068401C284982
:103800000860274800680328E3DB3CE02248007892
:10381000032820D100202549086025490860254952
:1038200008602549086025490860FDF78BFF00BF47
:10383000234800680028FBD000BF2148006800280A
:10384000FBD1FDF7EFFEC82000F0EAFFFDF7BAFF5D
:1038500000F03CFA17E010480078062813D1FDF775
:10386000A1FE00BF1648001F00680028FAD000BF64
:103870001348001F00680028FAD101F00FFE002154
:103880000120FEF773F804480078401C02490870D4
:1038900070BD0000004C004058000020B000002027
:1038A000A00000204C000020A4000020C400002044
:1038B000C0000020BC000020B8000020C80000208C
:1038C0000401224270B540F22551204800F037F93A
:1038D00000283AD01D4800F0EDF9C4B21C4820F889
:1038E0001540681CC5B21B48008800F4004060BB4E
:1038F0001848008800F4804068B10A2C03D00020EA
:103900001449088021E01348008840F40040114920
:103910000880002519E00D2C06D10E48008840F4DF
:1039200080400C49088010E00A480088C0F30D0070
:1039300009490C5407480088401C0649088008467D
:103940000088C72801DD0020088070BD00380140D4
:103950007C020020340100204403002010B540F216
:1039600025512F4800F0EBF8002857D02C4800F0E4
:10397000A1F9C1B22B4802780078401C294B18707D
:10398000294881540078B32802D0002019460870D5
:1039900024480078022806D123484078B32802D072
:1039A0000020204908701F480078072832DB1F4894
:1039B000006830B91B4802781B491D48FCF780FDA0
:1039C00025E01A480068012812D1164802781649E5
:1039D0001848FCF775FD002000F052FE00BF0020E3
:1039E00000F04EFE0028FAD1401E104908600EE09B
:1039F0000E48006802280AD10A4802780A490E488F
:103A0000FCF75EFD01200D49087000F071FD0020FB
:103A1000044908702021024800F012F810BD00008F
:103A200000440040DC000020D40000203C000020C6
:103A30001E000020260000202E0000205B00002039
:103A400001F40072B2F5007F00D100BFCA430280CA
:103A5000704710B50022002340F66A14A14200D13D
:103A600000BF0A1201249440A3B2DC43048010BDBD
:103A700021B1828942F40052828104E082894DF6AC
:103A8000FF731A408281704710B504462048844273
:103A900009D101218803FEF7F7F900214FF4804096
:103AA000FEF7F2F932E01B48844209D101214804B3
:103AB000FEF7CAF900214FF40030FEF7C5F925E002
:103AC0001548844209D101218804FEF7BDF900217F
:103AD0004FF48020FEF7B8F918E01048844209D16D
:103AE0000121C804FEF7B0F900214FF40020FEF7D1
:103AF000ABF90BE00A48844208D101210805FEF722
:103B0000A3F900214FF48010FEF79EF910BD0000CC
:103B1000003801400044004000480040004C004094
:103B20000050004002460020B1F5007F00D100BFE8
:103B300013880B400BB1012000E00020704770B5E6
:103B40000246002400230025002040F66A16B142F8
:103B500000D100BFC1F3421501F01F03012606FA90
:103B600003F3012D02D19689334006E0022D02D1E4
:103B7000168A334001E0968A33400C12012606FA79
:103B800004F41688344013B10CB1012000E0002089
:103B900070BDF0B50346002400260025002040F645
:103BA0006A17B94200D100BF1846C1F3421401F0B0
:103BB0001F06012707FA06F5012C01D10C3004E09D
:103BC000022C01D1103000E014301AB107682F43E5
:103BD000076002E00768AF430760F0BD2DE9F047DA
:103BE00086B005460E460024A24600BFA146002727
:103BF000B08900B100BF2F462C8A4CF6FF700440FC
:103C0000F08804432C82AC894EF6F3100440B0884F
:103C100031890843718908430443AC81AC8A4FF66B
:103C2000FF400440B0890443AC8201A8FEF73CF990
:103C30001F48874202D1DDF810A001E0DDF80CA09A
:103C4000A88900F4004040B10AEBCA0000EB0A105A
:103C500031684900B0FBF1F807E00AEBCA0000EB5D
:103C60000A1031688900B0FBF1F86420B8FBF0F06D
:103C700004012009642101FB1089A88900F4004097
:103C800040B1322000EBC900B0FBF1F000F00700BA
:103C9000044308E0322000EB09106421B0FBF1F08E
:103CA00000F00F0004432C8106B0BDE8F08700004F
:103CB0000038014001468888C0F308007047C1F30E
:103CC00008028280704700BFFEE700000A480068D3
:103CD00020F02000084908600846006820F008002D
:103CE00008600846006840F0010008600846006867
:103CF00040F0020008607047000401400A48006874
:103D000020F00100084908600846006820F0020021
:103D100008600846006840F0200008600846006817
:103D200040F008000860704700040140490050EA74
:103D3000C12018BF04204A0D18BF40F0010040F216
:103D4000FF72B2EB515F08BF40F00200012808BFCC
:103D5000052070472DE9F0414F1E00EBC7010446D6
:103D6000D1E9000115461E4637F006020DD02A465D
:103D7000334604F01FF87F1E04EBC703D3E900238A
:103D800003F0F8FD37F00602F1D1022F25D0042F01
:103D900013D0062F18BFBDE8F0812A46334604F041
:103DA00009F8D4E90A2303F0E5FD2A46334604F076
:103DB00001F8D4E9082303F0DDFD2A46334603F079
:103DC000F9FFD4E9062303F0D5FD2A46334603F074
:103DD000F1FFD4E9042303F0CDFD2A46334603F076
:103DE000E9FFD4E9022303F0C5FD2A46334603F078
:103DF000E1FFD4E90023BDE8F04103F0BBBD01229F
:103E000004F08DBE03F0B6BD0022134610461146E5
:103E100003F060BE024A0020110704F080BE0000DB
:103E200001FDFFFF30380A2801D201207047002031
:103E30007047014600BF70472DE9FE4F06460F460A
:103E40000025684601F0EEFB002442E056F824000D
:103E500057F82410A0EB010ABAF1000F01DB51461C
:103E600001E0CAF10001084604F04AFC83464FF025
:103E70008F4104F013FB80465DF82400002104F01C
:103E8000CFFB16D05DF82410404604F007FB8246B5
:103E90004FF07E5104F09CFD814629F0004A0F4806
:103EA000416A504604F058FD12D20120A04005435B
:103EB0000EE00A48C169404604F04EFC05D30748AD
:103EC000016A404604F048FD02D20120A0400543AB
:103ED000641C032CBADB2846BDE8FE8FD48B000897
:103EE0002DE9F04D8D4F21F0004A86B005460C4675
:103EF000BA452ADBAAEB070028430AD08848824546
:103F000001DC1AD1CDB106B02846BDE8F04DFFF76F
:103F100076BF844A844B284603F04CFF07460E4682
:103F2000824A834B2846214603F044FF06B03A46B6
:103F30003346BDE8F04D03F01DBD0120FCF7B4FB96
:103F400006B0BDE8F04DFFF75FBF7A48824542DA20
:103F5000BAF1795F0BDA2846FFF7E8FE042808BFBC
:103F6000FFF758FF284606B02146BDE8F08D2A46E7
:103F70000B46104603F01EFF834602466E480E466F
:103F80000B4606217844FFF7E5FE5A46334603F018
:103F900011FF804669488A465A46334604217844D0
:103FA000FFF7D8FE5A46334603F004FF00223B4693
:103FB00003F0E0FC02460B464046514603F08AFD02
:103FC0002A46234603F0F6FE06B02A462346BDE8FD
:103FD000F04D03F0CFBC284624F0004100223D46BE
:103FE0003B4603F0E5FF4FF0FF3204F098FD064634
:103FF000024653480F460B4606217844FFF7AAFEB7
:1040000032463B4603F0D6FECDE900014D4832462C
:104010003B4604217844FFF79DFE32463B4603F0C1
:10402000C9FE00222B4603F0A5FC834602913046D0
:10403000394603F049FB804643480D46504517DC9E
:10404000DDE900015A46029B03F044FD42462B463F
:1040500003F0B0FE42462B4603F08CFC012204F034
:104060005EFD304A304B04F095F8304A304B4CE05E
:104070004FF0000A52460B46404603F07BFCCDE968
:10408000031052462B461046194603F093FE324663
:104090003B4603F08DFFDDE9033203F01BFD0646CE
:1040A0000F46DDE900015A46029B03F013FD8346EB
:1040B000009101223046394604F031FD194A1A4B6D
:1040C00003F076FF06460F4601224046294604F0DB
:1040D00026FD5A46009B03F06DFE32463B4604F037
:1040E00059F806460F4601225046294604F017FDAE
:1040F0000E4DDFF858802A46434603F059FF3246FA
:104100003B4603F055FF2A46434603F051FF002C7F
:10411000D8BF81F0004106B0BDE8F08D0000F03F4F
:104120000000F07F075C143326A6913C182D445400
:10413000FB21F93F0000E03F805800009658000046
:104140000A580000205800003333EF3FFB21E93FBD
:104150002DE9F84F04460D4621F0004000917349C7
:10416000814211DC7249884201DC06D12CB1204623
:104170002946BDE8F84FFFF742BE6E48002DCCBF80
:104180006D496E49BDE8F88F6D49814211DD6D4979
:104190008142D8BF4FF0FF366DDD20462946FFF73C
:1041A000C5FD042808BFFFF735FE20462946BDE8B7
:1041B000F88F6549654F25F00045814233DD64493C
:1041C000814219DD002632464FF0804320462946C1
:1041D00003F0D0FB80468A4601222046294604F09F
:1041E0009EFC00223B4603F0D5FF4246534603F0B7
:1041F00071FC04460D463EE001260022BA463B46CD
:104200002046294603F0B6FB80460F46002253465F
:104210002046294603F0BEFF42463B4603F05AFCC7
:1042200004460D4627E04B4981421BDDDFF828A1FB
:104230000226002253462046294603F0BBFD0022F9
:104240003B4603F097FB80460F460022534620462C
:10425000294603F09FFF42463B4603F03BFC0446E1
:104260000D4608E0032622462B4600203B4903F07A
:1042700031FC04460D4622462B461046194603F0F3
:1042800099FD8B46824602460B4603F093FD074696
:104290000246334888460B4606217844FFF75AFD0C
:1042A00052465B4603F086FD82462E488B463A46D0
:1042B000434605217844FFF74DFD3A46434603F057
:1042C00079FD02460B46002E504659460CDA03F0A3
:1042D00051FB22462B4603F06DFD01B022462B46D2
:1042E000BDE8F04F03F064BE03F044FB22462B46CA
:1042F00003F060FD1C4A7A4402EBC603D3E90023B5
:1043000003F048FF22462B4603F044FF174A7A4445
:1043100002EBC603D3E9002303F04AFE009A002A09
:10432000B8BF81F00041BDE8F88F000000001044E4
:104330000000F07F182D4454FB21F93FFB21F9BF09
:104340000000DC3F0000203E0000F33F0000F03F93
:104350000000E63F008003400000F83F0000F0BF8F
:1043600022560000E05500007E5500004655000032
:104370002DE9F04D9446CCF1000423F000464CEAC0
:104380000404524F46EAD4749A46884621F000420B
:10439000BC4206D8454240EA050442EAD474BC4215
:1043A00004D9BDE8F04D6246FFF72CBDAAF1405597
:1043B000A5F17F6555EA0C040BD0022404EAAA7427
:1043C000434DDFF810E144EAD87452EA000B04D000
:1043D0000CE0BDE8F04DFFF7BBBE002C14BF012C74
:1043E000BDE8F08D022C30D0032C32D056EA0C0BF5
:1043F0000AD0BE4220D1BA4209D126F0804622F02E
:1044000080423346114617E000291ADB25E0DFF829
:10441000C8B0FB44002C04BFDBE90001BDE8F08D0F
:10442000012C02BFDBE9000181F00041BDE8F08D05
:10443000022C0AD0032C0CD0BA4212D1B8F1000FD2
:104440000BDA23482549BDE8F08D28462449BDE80C
:10445000F08D28467146BDE8F08D1D482149BDE824
:10446000F08D921B12153C2AC4BF19481D490EDC61
:10447000BAF1000FBEBF12F13C0F0020014606DB6F
:10448000624603F027FB21F00041FFF761FE002C9C
:1044900008BFBDE8F08D012C04BF81F00041BDE8EC
:1044A000F08D114A114B022C07D003F073FE2A46FF
:1044B000BDE8F04D0A4B03F06DBE03F06BFE2A46DB
:1044C000BDE8F04D064B03F073BD00000000F07F27
:1044D000182D4454FB2109C0DA540000FB21F9BF18
:1044E000FB210940FB21F93F075C143326A6A13CC0
:1044F00070B50024002533480068022861D1324895
:10450000007800285DD031480068002859D100BFEC
:1045100010E000250BE02E49A01C085C2D4951F845
:104520002510884202D1681C2B4908556D1C032DAB
:10453000F1DB641C032CECDB2749887802F0DAFEFF
:104540002649086024480078C0B323484078A8B3BF
:104550002148807890B3204800781F4949788842E4
:1045600001D0012000E000201B498978884225D035
:104570001648006808B9012000E0002013490860CF
:104580001549087802F0B6FE06783046FFF7ECF8D9
:10459000142000F045F91049487802F0ABFE067887
:1045A0003046FFF7E1F8142000F03AF90A4988781C
:1045B00002F0A0FE06783046FFF7D6F80020024948
:1045C000087070BD3C0000205B000020AC000020A3
:1045D0002E0000206C01002036000020D0000020BA
:1045E000012803D17B22244B1A601EE0022803D14C
:1045F0008422214B1A6018E0032803D1D5221E4BD8
:104600001A6012E0042803D1E7221B4B1A600CE069
:10461000052804D14FF49C72174B1A6005E0062858
:1046200003D140F24112144B1A60012903D17B22BD
:10463000124B1A601EE0022903D184220F4B1A602C
:1046400018E0032903D1D5220C4B1A6012E004298B
:1046500003D1E722094B1A600CE0052904D14FF47D
:104660009C72064B1A6005E0062903D140F2411204
:10467000024B1A60704700004400002048000020F0
:104680003EB50346002100220020009001900290D8
:1046900000BF05E0334C881C205C4DF82100491C0C
:1046A0000329F7DB13B1012B38D11BE02E4800683A
:1046B000642490FBF4F02D4C20602B4800680A2401
:1046C00090FBF4F090FBF4F504FB1500274C6060C0
:1046D000254800680A2490FBF4F504FB1500234CE0
:1046E000A0601BE022480068642490FBF4F01F4C9B
:1046F00020601F4800680A2490FBF4F090FBF4F55A
:1047000004FB1500194C6060194800680A2490FBEE
:10471000F4F504FB1500154CA06000BF00BF00219C
:1047200010E000220BE0114850F821005DF8224013
:10473000A04203D1501C0F4C44F82100521C032A04
:10474000F1DB491C0329ECDB0A48006838B1094851
:10475000406820B10748806808B100203EBD0120B4
:10476000FCE7000026000020440000206C0100202F
:10477000480000204C0000202DE9F0410446E0787C
:1047800000F0C006E07800F03F05607800F001001E
:1047900098B1EF102846E91705EB5171C910A5EB48
:1047A000C101491C01F0FF080B48006820B10A480C
:1047B000414602683846904700BF607800F0080024
:1047C00030B10548406818B1B011034A51688847B4
:1047D0000020BDE8F0810000DC01002010B56FF082
:1047E0000400FDF76DFC0A4800680A49B0FBF1F0CF
:1047F000094908700846007800EB4001C1EBC01081
:104800004FF6FF7101EAC0000449088010BD0000A6
:10481000E000002000127A002A0100202C01002074
:104820000146114A12884A434FF0E0235A610022A0
:104830009A611A46126942F001021A6100BF4FF0F4
:10484000E022106900F001021AB100F48032002A5F
:10485000F5D04FF0E022126922F001024FF0E02380
:104860001A6100229A6170472C010020002100EBA0
:104870004002C2EBC0124FF6FF7303EAC20007E02A
:1048800041F2883100BF0A00A1F1010399B2FAD1C7
:104890000200A0F1010398B2F2D170470146114A1B
:1048A00012784A434FF0E0235A6100229A611A4677
:1048B000126942F001021A6100BF4FF0E022106954
:1048C00000F001021AB100F48032002AF5D04FF056
:1048D000E022126922F001024FF0E0231A61002267
:1048E0009A6170472A01002038B5044664B120203F
:1048F0008DF8000028208DF8010030208DF802008E
:1049000038208DF8030004E0A32204216846FBF759
:104910001CFE6A46042140F69E2002F0ABFC02F029
:1049200095F838BD3EB5044602208DF80000CA2037
:104930008DF80100E3208DF8020009208DF80300B6
:104940006A460421682002F095FCA3208DF800003F
:1049500004F0400048B1C0208DF80100C8208DF857
:104960000200C2208DF8030006E0A3208DF80100AC
:104970008DF802008DF8030004F4C07048B1C42023
:104980008DF80400CC208DF80500C6208DF80600B7
:1049900006E0A3208DF804008DF805008DF80600D0
:1049A000A3208DF807008DF808008DF809006A46ED
:1049B0000A2140F6A72002F05DFC04F0030018B1C4
:1049C00020208DF8000002E0D8208DF800006A4613
:1049D000012140F6B62002F04DFC04F0200018B191
:1049E000012000F0ADF802E0002000F0A9F804F486
:1049F000C07008B304F4807060B1B2208DF800007C
:104A00008B208DF80100B6208DF802009B208DF8D8
:104A100003000BE0B0208DF8000080208DF801002D
:104A2000B4208DF8020090208DF803006A4604211E
:104A300040F6A22002F01EFC04F0010020B3F82092
:104A40008DF800006A4601214FF40B6002F012FC61
:104A5000FA21072000F02CFC072000F0F3FB0120D6
:104A600000F013FC642000F0F3FC4FF4FA7000F047
:104A700002FDC821304800F0A3FB282000F0BCFB59
:104A80000A2000F0CCFB08E0D8208DF800006A4630
:104A900001214FF40B6002F0EDFB04F0020018B1AD
:104AA000D9208DF8000002E0D8208DF800006A4679
:104AB000012140F23D7002F0DDFB04F0040018B16A
:104AC000012000F069F802E0002000F065F804F031
:104AD000100018B10120FFF707FF02E00020FFF7E8
:104AE00003FF44F008001549488101F0AFFF0020A2
:104AF0001249887304F0400018B10846807B801D7D
:104B0000887304F4C07020B10C48807B801D0B4971
:104B1000887304F0140020B10848807B10300749E6
:104B2000887304F0030020B10448807B001D034912
:104B3000887300203EBD000009E3CA02DC010020AA
:104B40003EB504466CB10EA1D1E900208968CDE9DB
:104B5000002002916A4609214FF4976002F08AFB17
:104B60003EBD0AA2D2E900109268CDE9010200918F
:104B70006A4609214FF4976002F07CFBF0E70000E1
:104B8000B8AAB38DB4980D355D000000B8AAAAAAE2
:104B9000B088C3C5C700000038B5044664B1C02062
:104BA0008DF80000C2208DF80100C4208DF80200AD
:104BB000C6208DF8030004E08B2204216846FBF731
:104BC000C4FC6A46042140F6982002F053FB01F031
:104BD0003DFF38BD10B5C8234FF48062024940F64E
:104BE000F63001F0C7FD10BDFC8B00082DE9F04F39
:104BF0008DB00746884615469946DDE9166B0024B8
:104C0000002030806B49887B5A4605A901F07EFE62
:104C100018B1601E0DB0BDE8F08F6648807A00F0D4
:104C20001400002867D09DF8140000069DF81510A8
:104C300040EA01409DF8161040EA01209DF8171047
:104C4000084328609DF8180000069DF8191040EAF6
:104C500001409DF81A1040EA01209DF81B100843FE
:104C600068609DF81C0000069DF81D1040EA014098
:104C70009DF81E1040EA01209DF81F100843A8600F
:104C80009DF8200000069DF8211040EA01409DF8A3
:104C9000221040EA01209DF823100843E86004F147
:104CA0001000C4B2286800140190686800140290D3
:104CB000A86800140390E868001404900198404329
:104CC000029901FB0100039901FB0100049901FB1A
:104CD000010ABAF1706F02DBBAF1885F05DD01F0FD
:104CE000B5FE00203080401E94E7B6F9000040F485
:104CF0008070308000BF2F48807A00F0400020B3E1
:104D000005A9601C085C095D40EA012000B2A8F812
:104D1000000005A9E01C095C05AAA01C105C41EA82
:104D2000002000B2A8F8020005A9601D095C201D42
:104D3000105C41EA002000B2A8F80400A01DC4B233
:104D4000B6F9000040F0080030801A48408900F4AD
:104D5000C07008B305A9601C085C095D40EA012029
:104D600000B2388005A9E01C095C05AAA01C105CF3
:104D700041EA002000B2788005A9601D095C201D71
:104D8000105C41EA002000B2B880A01DC4B2B6F9A0
:104D9000000040F0700030800648807A00F0030088
:104DA00018B105A90819FFF7E7FC484601F074F9A6
:104DB00000202FE7DC01002070B588B0064601A86E
:104DC00001F02CFBBDF804000021C90341EA504565
:104DD000C4034448007A00F0030056F82000059010
:104DE0004048007A00F0040010B105984042059058
:104DF0003C48007AC0F3C10056F8200006903948BC
:104E0000007A00F0200010B1069840420690354824
:104E1000007AC0F3811056F82000079031480089CD
:104E200000F4807010B10798404207900598C117B0
:104E3000A0FB042301FB043100FB0510810041EAC3
:104E4000927005900698C117A0FB042301FB043162
:104E500000FB0510810041EA927006900798C11787
:104E6000A0FB042301FB043100FB0510810041EA93
:104E7000927007900598000E8DF808000598000CB8
:104E80008DF809000598000A8DF80A000598C0B24F
:104E90008DF80B000698000E8DF80C000698000C9B
:104EA0008DF80D000698000A8DF80E000698C0B225
:104EB0008DF80F000798000E8DF810000798000C71
:104EC0008DF811000798000A8DF812000798C0B2FB
:104ED0008DF8130002AA0C214FF4257002F0CAF9D4
:104EE00008B070BDDC01002030B585B0044616A2C4
:104EF00007CA02AB07C3C82C03DD4FF0FF3005B073
:104F000030BDC82090FBF4F0401E85B2280A8DF811
:104F10000000E8B28DF801006A46022140F2162036
:104F200002F0A8F910B14FF0FF30E8E702AA0C2117
:104F300040F6C12002F09EF910B14FF0FF30DEE7DD
:104F4000044884810020DAE7FEF2ABC4AAF1DFDF77
:104F5000BBAFDFDFDC0100201FB504464848007A04
:104F600000F0030054F8200001904548007A00F05A
:104F7000040010B10198404201904148007AC0F30A
:104F8000C10054F8200002903D48007A00F0200053
:104F900010B10298404202903948007AC0F3811063
:104FA00054F8200003903648008900F4807010B156
:104FB0000398404203903349019880FB0101800F20
:104FC00040EA810001902F49029880FB0110820085
:104FD00042EA917002902B49039880FB01108200F5
:104FE00042EA917003900198000E8DF8000001983C
:104FF000000C8DF801000198000A8DF8020001985C
:10500000C0B28DF803006A4604214FF4747002F0B8
:1050100031F918B14FF0FF3004B010BD0298000E06
:105020008DF800000298000C8DF801000298000A2B
:105030008DF802000298C0B28DF803006A46042180
:105040004FF4757002F016F910B14FF0FF30E3E73E
:105050000398000E8DF800000398000C8DF80100F5
:105060000398000A8DF802000398C0B28DF803007F
:105070006A4604214FF4767002F0FCF8CCE7000099
:10508000DC01002009E3CA0210B586B0044647A03F
:105090000068039046A00068029046A00068019056
:1050A00045A00068009004F0030003A9085C8DF897
:1050B000140003A8C4F3C101405C8DF8150003A8D7
:1050C000C4F38111405C8DF8160004F0030002A9BE
:1050D000085C8DF8100002A8C4F3C101405C8DF893
:1050E000110002A8C4F38111405C8DF8120005AADA
:1050F000032140F2264002F0BDF818B14FF0FF3016
:1051000006B010BD04AA032140F22A4002F0B2F812
:1051100010B14FF0FF30F3E701980590009804902C
:1051200004F0040058B19DF8140040F001008DF81F
:1051300014009DF8100040F001008DF8100004F0FC
:10514000200058B19DF8150040F001008DF81500C1
:105150009DF8110040F001008DF8110004F48070FA
:1051600058B19DF8160040F001008DF816009DF82A
:10517000120040F001008DF8120005AA03214FF43F
:10518000886002F077F810B14FF0FF30B8E704AA5A
:10519000032140F2314002F06DF810B14FF0FF30C2
:1051A000AEE7064804810020AAE700004CCD6C0061
:1051B0000CC92C003656760026466600DC0100201D
:1051C000F8B505460E464FF47A7095FBF0F000FBFB
:1051D00006F4200E8DF80000200C8DF80100200A46
:1051E0008DF80200E0B28DF803006A4604214FF406
:1051F000AE7002F03FF8F8BD38B50446052094FBC8
:10520000F0F084B220128DF80000E0B28DF80100B9
:105210006A4602214FF4AD7002F02CF838BD38B563
:105220000446052094FBF0F084B220128DF80000B3
:10523000E0B28DF801006A4602214FF4AC7002F032
:1052400019F838BD38B504460020009004F001007C
:1052500020B19DF8000040F03000009004F0020002
:1052600020B19DF8000040F00C00009004F0040014
:1052700020B19DF8000040F0030000906A46012133
:105280004FF4A47001F0F6FF38BD38B50446012C88
:1052900001DA012402E0042C00DD0424601EC0B207
:1052A00000906A46012140F24F1001F0E3FF38BD43
:1052B0002DE9FC4706460F4606F0070010B1B7F58A
:1052C000C86F03DD4FF0FF30BDE8FC87384603F0C0
:1052D0002FFA8146594903F0E1F88046684601F00B
:1052E00077F89DF80000022806D0042816D0082878
:1052F00026D0102848D135E04FF08D41404603F0CC
:105300005FFA814603F0DCF984B24D49404603F070
:1053100057FA814603F0D4F985B238E04FF08C415A
:10532000404603F04DFA814603F0CAF984B245497C
:10533000404603F045FA814603F0C2F985B226E003
:105340004FF08B41404603F03BFA814603F0B8F939
:1053500084B23D49404603F033FA814603F0B0F988
:1053600085B214E04FF08A41404603F029FA8146A5
:1053700003F0A6F984B23549404603F021FA81468C
:1053800003F09EF985B202E04FF0FF309CE700BFCA
:1053900020128DF80400E0B28DF8050028128DF877
:1053A0000600E8B28DF8070006F00100A0B101AADE
:1053B00002214FF4EA7001F05DFF10B14FF0FF30B1
:1053C00082E70DF1060202214FF4927001F052FFC4
:1053D00010B14FF0FF3077E706F00200A0B101AA4C
:1053E00002214FF4EC7001F045FF10B14FF0FF3097
:1053F0006AE70DF1060202214FF4947001F03AFFC2
:1054000010B14FF0FF305FE706F00400A0B101AA31
:1054100002214FF4EE7001F02DFF10B14FF0FF307C
:1054200052E70DF1060202214FF4967001F022FFBF
:1054300010B14FF0FF3047E7002045E70000484338
:10544000000040460000C045000040450000C04448
:1054500038B50446052094FBF0F085B228128DF88B
:105460000000E8B28DF801006A4602214FF4EF70A7
:1054700001F000FF38BD38B50446052094FBF0F07C
:1054800085B228128DF80000E8B28DF801006A4656
:1054900002214FF4ED7001F0EDFE38BD10B5FCF7C0
:1054A000C1F80120FFF7E2F9FBF712FD0EE0FBF770
:1054B0000FFD22480078012802D1FCF7FBF905E036
:1054C0001E480078022801D1FCF722FA1C48B0F9E6
:1054D00000000A2190FBF1F00028E8DCFCF7A2F8BC
:1054E0004FF4FA70FFF79CF90EE0FBF7F1FC13485C
:1054F0000078012802D1FCF7DDF905E00F480078BB
:10550000022801D1FCF704FA0D48B0F900000A2185
:1055100090FBF1F00028E8DCFCF784F80120FFF7AD
:10552000A5F9002007490860074908600749086095
:10553000074908600749086010BD0000040000200A
:105540000C000020C4000020C0000020BC0000208F
:10555000B8000020C800002000BF054A128802F0F1
:105560004002002AF9D0C2B2014B1B1D1A807047BD
:105570000038014070B50446A08CA0F5FE40FF380D
:1055800005B247F6FF70A084B4F1804F05D11D48E5
:10559000006828441B49086019E01B48844205D173
:1055A0001A48006828441949086010E018488442E5
:1055B00005D11848006828441649086007E01648D5
:1055C000844204D1154800682844144908600D48F5
:1055D000006801F0B7FE06460C48006801F0B2FE14
:1055E00006440C48006801F0ADFE06440B48006814
:1055F00001F0A8FE3044282190FBF1F00849086032
:10560000284670BDB800002000080040BC00002003
:10561000000C0040C000002000340140C400002005
:10562000C80000207CB5054628494968087801ABC8
:1056300004220D21FBF7DDFE08B107207CBD9DF89B
:105640000700C0F301109DF8041001F0E00140EAEA
:10565000E1008DF800009DF80700C0F381009DF87F
:10566000051001F0E00140EAE1008DF801009DF82D
:10567000070000F003009DF8061001F0E00140EA89
:10568000E1008DF8020000241CE01DF8040018B9A8
:10569000002045F8240013E00D4845F8240006E0FA
:1056A00055F824000B4903F08BF845F824001DF849
:1056B0000400401EC0B20DF804000028F0D100BF65
:1056C000601CC4B2032CE0DB0020B7E7F40000202C
:1056D0007B14AE3E1D5A843F2DE9F04F87B005463E
:1056E0000C46914601208DF8100000208DF8110025
:1056F000FE4A1268917CFD4A5268107804AB02227F
:10570000FBF71DFF20B14FF0FF3007B0BDE8F08F71
:10571000C820FFF785F800208DF81000F34A1268C2
:10572000D17BF24A5268107804AB0122FBF707FFE5
:1057300010B14FF0FF30E8E7EC4A12685179EB4ABC
:105740005268107804AB0122FBF7F9FE10B14FF05C
:10575000FF30DAE7E54A1268917CE44A5268107833
:1057600004AB0122FBF7EBFE10B14FF0FF30CCE7AA
:10577000DE4A1268D17DDD4A5268107804AB0122FE
:10578000FBF7DDFE10B14FF0FF30BEE7D74A1268DD
:105790001179D64A5268107804AB0122FBF7CFFE8C
:1057A00010B14FF0FF30B0E70C208DF81000CF4A59
:1057B00012681179CD4A5268107804AB0122FBF7C8
:1057C000BEFE10B14FF0FF309FE70F20FFF728F823
:1057D000C648806A407A8DF81000C44A12689178F1
:1057E000C24A5268107804AB0122FBF7A8FE10B140
:1057F0004FF0FF3089E7BD48806A007A8DF81000CD
:10580000BA4A12685178B94A5268107804AB01223A
:10581000FBF795FE10B14FF0FF3076E7B9F1000FBE
:1058200007D0B248806A807A40F0E0008DF810001E
:1058300004E0AE48806A807A8DF81000AB4A1268A6
:105840009179AA4A5268107804AB0122FBF777FEDF
:1058500010B14FF0FF3058E7B9F1000F07D0A3485F
:10586000806AC07A40F0E0008DF8100003E0A048A4
:10587000C07A8DF810009D4A1268D1799B4A52680F
:10588000107804AB0122FBF75AFE10B14FF0FF3045
:105890003BE7B9F1000F02D0C820FEF7C1FF40205E
:1058A0008DF81000914A12681179904A5268107868
:1058B00004AB0122FBF743FE10B14FF0FF3024E7A9
:1058C00078208DF81000894A12685179874A526809
:1058D000107804AB0122FBF732FE10B14FF0FF301D
:1058E00013E783498889FEF79BFF00208DF810009D
:1058F0007E4A126851797D4A5268107804AB0122C1
:10590000FBF71DFE10B14FF0FF30FEE6774A12683C
:10591000917A764A5268107804AB0222FBF769FD4F
:1059200010B14FF0FF30F0E69DF811009DF8101017
:1059300040EA012B0C209BFBF0F0C6B20020A860CF
:1059400068602860A06060602060824665E0674A09
:105950001268D17A654A5268107804AB0C22FBF7C2
:1059600048FD10B14FF0FF30CFE69DF811009DF8D3
:10597000101040EA012000B2ADF808009DF81300B5
:105980009DF8121040EA012000B2ADF80A009DF81F
:1059900015009DF8141040EA012000B2ADF80C008B
:1059A000BDF90810206808442060BDF90A1060683D
:1059B00008446060BDF90C10A0680844A0609DF820
:1059C00017009DF8161040EA012000B2ADF8000063
:1059D0009DF819009DF8181040EA012000B2ADF8BA
:1059E00002009DF81B009DF81A1040EA012000B249
:1059F000ADF80400BDF90010286808442860BDF91E
:105A00000210686808446860BDF90410A86808447A
:105A1000A8600AF1010000F0FF0AB24597DB3448A4
:105A2000D0F800C02868C117090441EA10410704F2
:105A3000624600233846FAF70EFC32460023CDE9D1
:105A40000201FAF708FC28602948D0F800C068680D
:105A5000C117090441EA1041070462460023384691
:105A6000FAF7F9FB32460023CDE90201FAF7F3FB1E
:105A700068601F48D0F800C0A868C117090441EA4F
:105A800010410704624600233846FAF7E4FB324629
:105A90000023CDE90201FAF7DEFBA8601448D0F834
:105AA00004C02168C817000440EA11480F04624688
:105AB000002338464146FAF7CEFB32460023CDE9B3
:105AC0000201FAF7C8FB20600948D0F804C06068FA
:105AD000C117090441EA1041070462460023384611
